{
  "_format": "hh-sol-artifact-1",
  "contractName": "Tracking",
  "sourceName": "contracts/Tracking.sol",
  "abi": [
    {
      "inputs": [],
      "stateMutability": "nonpayable",
      "type": "constructor"
    },
    {
      "anonymous": false,
      "inputs": [
        {
          "indexed": true,
          "internalType": "address",
          "name": "sender",
          "type": "address"
        },
        {
          "indexed": true,
          "internalType": "address",
          "name": "receptor",
          "type": "address"
        },
        {
          "indexed": false,
          "internalType": "uint256",
          "name": "fechaCreacion",
          "type": "uint256"
        },
        {
          "indexed": false,
          "internalType": "uint256",
          "name": "ddr",
          "type": "uint256"
        },
        {
          "indexed": false,
          "internalType": "uint256",
          "name": "precio",
          "type": "uint256"
        }
      ],
      "name": "RamAssembled",
      "type": "event"
    },
    {
      "anonymous": false,
      "inputs": [
        {
          "indexed": true,
          "internalType": "address",
          "name": "sender",
          "type": "address"
        },
        {
          "indexed": true,
          "internalType": "address",
          "name": "receptor",
          "type": "address"
        },
        {
          "indexed": false,
          "internalType": "uint256",
          "name": "fechaFinal",
          "type": "uint256"
        }
      ],
      "name": "RamDelivered",
      "type": "event"
    },
    {
      "anonymous": false,
      "inputs": [
        {
          "indexed": true,
          "internalType": "address",
          "name": "sender",
          "type": "address"
        },
        {
          "indexed": true,
          "internalType": "address",
          "name": "receptor",
          "type": "address"
        },
        {
          "indexed": false,
          "internalType": "uint256",
          "name": "fechaCreacion",
          "type": "uint256"
        }
      ],
      "name": "RamEnviada",
      "type": "event"
    },
    {
      "anonymous": false,
      "inputs": [
        {
          "indexed": true,
          "internalType": "address",
          "name": "sender",
          "type": "address"
        },
        {
          "indexed": true,
          "internalType": "address",
          "name": "receptor",
          "type": "address"
        }
      ],
      "name": "RamPacked",
      "type": "event"
    },
    {
      "anonymous": false,
      "inputs": [
        {
          "indexed": true,
          "internalType": "address",
          "name": "sender",
          "type": "address"
        },
        {
          "indexed": true,
          "internalType": "address",
          "name": "receptor",
          "type": "address"
        },
        {
          "indexed": false,
          "internalType": "uint256",
          "name": "amount",
          "type": "uint256"
        }
      ],
      "name": "RamPaid",
      "type": "event"
    },
    {
      "anonymous": false,
      "inputs": [
        {
          "indexed": true,
          "internalType": "address",
          "name": "sender",
          "type": "address"
        },
        {
          "indexed": true,
          "internalType": "address",
          "name": "receptor",
          "type": "address"
        },
        {
          "indexed": false,
          "internalType": "uint256",
          "name": "fechaCreacion",
          "type": "uint256"
        }
      ],
      "name": "RamProgrammed",
      "type": "event"
    },
    {
      "anonymous": false,
      "inputs": [
        {
          "indexed": true,
          "internalType": "address",
          "name": "sender",
          "type": "address"
        },
        {
          "indexed": true,
          "internalType": "address",
          "name": "receptor",
          "type": "address"
        }
      ],
      "name": "RamTested",
      "type": "event"
    },
    {
      "inputs": [
        {
          "internalType": "address",
          "name": "_sender",
          "type": "address"
        },
        {
          "internalType": "address",
          "name": "_receptor",
          "type": "address"
        },
        {
          "internalType": "uint256",
          "name": "_index",
          "type": "uint256"
        }
      ],
      "name": "completeRam",
      "outputs": [],
      "stateMutability": "nonpayable",
      "type": "function"
    },
    {
      "inputs": [
        {
          "internalType": "address",
          "name": "_receptor",
          "type": "address"
        },
        {
          "internalType": "uint256",
          "name": "_fechaCreacion",
          "type": "uint256"
        },
        {
          "internalType": "uint256",
          "name": "_ddr",
          "type": "uint256"
        },
        {
          "internalType": "uint256",
          "name": "_precio",
          "type": "uint256"
        }
      ],
      "name": "createRam",
      "outputs": [],
      "stateMutability": "payable",
      "type": "function"
    },
    {
      "inputs": [],
      "name": "getAllTransactions",
      "outputs": [
        {
          "components": [
            {
              "internalType": "address",
              "name": "sender",
              "type": "address"
            },
            {
              "internalType": "address",
              "name": "receptor",
              "type": "address"
            },
            {
              "internalType": "uint256",
              "name": "fechaCreacion",
              "type": "uint256"
            },
            {
              "internalType": "uint256",
              "name": "fechaEnvio",
              "type": "uint256"
            },
            {
              "internalType": "uint256",
              "name": "ddr",
              "type": "uint256"
            },
            {
              "internalType": "uint256",
              "name": "precio",
              "type": "uint256"
            },
            {
              "internalType": "enum Tracking.RamStatus",
              "name": "status",
              "type": "uint8"
            },
            {
              "internalType": "bool",
              "name": "isPaid",
              "type": "bool"
            }
          ],
          "internalType": "struct Tracking.TypeRam[]",
          "name": "",
          "type": "tuple[]"
        }
      ],
      "stateMutability": "view",
      "type": "function"
    },
    {
      "inputs": [
        {
          "internalType": "address",
          "name": "_sender",
          "type": "address"
        },
        {
          "internalType": "uint256",
          "name": "_index",
          "type": "uint256"
        }
      ],
      "name": "getRam",
      "outputs": [
        {
          "internalType": "address",
          "name": "",
          "type": "address"
        },
        {
          "internalType": "address",
          "name": "",
          "type": "address"
        },
        {
          "internalType": "uint256",
          "name": "",
          "type": "uint256"
        },
        {
          "internalType": "uint256",
          "name": "",
          "type": "uint256"
        },
        {
          "internalType": "uint256",
          "name": "",
          "type": "uint256"
        },
        {
          "internalType": "uint256",
          "name": "",
          "type": "uint256"
        },
        {
          "internalType": "enum Tracking.RamStatus",
          "name": "",
          "type": "uint8"
        },
        {
          "internalType": "bool",
          "name": "",
          "type": "bool"
        }
      ],
      "stateMutability": "view",
      "type": "function"
    },
    {
      "inputs": [
        {
          "internalType": "address",
          "name": "_sender",
          "type": "address"
        }
      ],
      "name": "getRamsCount",
      "outputs": [
        {
          "internalType": "uint256",
          "name": "",
          "type": "uint256"
        }
      ],
      "stateMutability": "view",
      "type": "function"
    },
    {
      "inputs": [
        {
          "internalType": "address",
          "name": "_sender",
          "type": "address"
        },
        {
          "internalType": "address",
          "name": "_receptor",
          "type": "address"
        },
        {
          "internalType": "uint256",
          "name": "_index",
          "type": "uint256"
        }
      ],
      "name": "packedRam",
      "outputs": [],
      "stateMutability": "nonpayable",
      "type": "function"
    },
    {
      "inputs": [
        {
          "internalType": "address",
          "name": "_sender",
          "type": "address"
        },
        {
          "internalType": "address",
          "name": "_receptor",
          "type": "address"
        },
        {
          "internalType": "uint256",
          "name": "_index",
          "type": "uint256"
        }
      ],
      "name": "programmedRam",
      "outputs": [],
      "stateMutability": "nonpayable",
      "type": "function"
    },
    {
      "inputs": [],
      "name": "ramCount",
      "outputs": [
        {
          "internalType": "uint256",
          "name": "",
          "type": "uint256"
        }
      ],
      "stateMutability": "view",
      "type": "function"
    },
    {
      "inputs": [
        {
          "internalType": "address",
          "name": "",
          "type": "address"
        },
        {
          "internalType": "uint256",
          "name": "",
          "type": "uint256"
        }
      ],
      "name": "rams",
      "outputs": [
        {
          "internalType": "address",
          "name": "sender",
          "type": "address"
        },
        {
          "internalType": "address",
          "name": "receptor",
          "type": "address"
        },
        {
          "internalType": "uint256",
          "name": "fechaCreacion",
          "type": "uint256"
        },
        {
          "internalType": "uint256",
          "name": "fechaEnvio",
          "type": "uint256"
        },
        {
          "internalType": "uint256",
          "name": "ddr",
          "type": "uint256"
        },
        {
          "internalType": "uint256",
          "name": "precio",
          "type": "uint256"
        },
        {
          "internalType": "enum Tracking.RamStatus",
          "name": "status",
          "type": "uint8"
        },
        {
          "internalType": "bool",
          "name": "isPaid",
          "type": "bool"
        }
      ],
      "stateMutability": "view",
      "type": "function"
    },
    {
      "inputs": [
        {
          "internalType": "address",
          "name": "_sender",
          "type": "address"
        },
        {
          "internalType": "address",
          "name": "_receptor",
          "type": "address"
        },
        {
          "internalType": "uint256",
          "name": "_index",
          "type": "uint256"
        }
      ],
      "name": "startRam",
      "outputs": [],
      "stateMutability": "nonpayable",
      "type": "function"
    },
    {
      "inputs": [
        {
          "internalType": "address",
          "name": "_sender",
          "type": "address"
        },
        {
          "internalType": "address",
          "name": "_receptor",
          "type": "address"
        },
        {
          "internalType": "uint256",
          "name": "_index",
          "type": "uint256"
        }
      ],
      "name": "testRam",
      "outputs": [],
      "stateMutability": "nonpayable",
      "type": "function"
    }
  ],
  "bytecode": "0x608060405234801561001057600080fd5b506000600181905550612144806100286000396000f3fe60806040526004361061009b5760003560e01c80634be89d0b116100645780634be89d0b146101a557806352d51dc9146101ce578063755969fc1461020b5780639020944314610234578063a085727d14610250578063a3bcd4a71461027b5761009b565b80623c80d8146100a05780630dc7da43146100c957806327506f531461010d578063366576651461013857806340f1136e14610161575b600080fd5b3480156100ac57600080fd5b506100c760048036038101906100c29190611952565b6102a4565b005b3480156100d557600080fd5b506100f060048036038101906100eb91906119a5565b6104f1565b604051610104989796959493929190611a95565b60405180910390f35b34801561011957600080fd5b506101226105b0565b60405161012f9190611ca1565b60405180910390f35b34801561014457600080fd5b5061015f600480360381019061015a9190611952565b61073a565b005b34801561016d57600080fd5b50610188600480360381019061018391906119a5565b610987565b60405161019c989796959493929190611a95565b60405180910390f35b3480156101b157600080fd5b506101cc60048036038101906101c79190611952565b610b71565b005b3480156101da57600080fd5b506101f560048036038101906101f09190611cc3565b610f45565b6040516102029190611cf0565b60405180910390f35b34801561021757600080fd5b50610232600480360381019061022d9190611952565b610f90565b005b61024e60048036038101906102499190611d0b565b6111ec565b005b34801561025c57600080fd5b50610265611657565b6040516102729190611cf0565b60405180910390f35b34801561028757600080fd5b506102a2600480360381019061029d9190611952565b61165d565b005b60008060008573ffffffffffffffffffffffffffffffffffffffff1673ffffffffffffffffffffffffffffffffffffffff16815260200190815260200160002082815481106102f6576102f5611d72565b5b9060005260206000209060070201905060006002838154811061031c5761031b611d72565b5b906000526020600020906007020190508373ffffffffffffffffffffffffffffffffffffffff168260010160009054906101000a900473ffffffffffffffffffffffffffffffffffffffff1673ffffffffffffffffffffffffffffffffffffffff16146103be576040517f08c379a00000000000000000000000000000000000000000000000000000000081526004016103b590611dfe565b60405180910390fd5b600360058111156103d2576103d1611a03565b5b8260060160009054906101000a900460ff1660058111156103f6576103f5611a03565b5b14610436576040517f08c379a000000000000000000000000000000000000000000000000000000000815260040161042d90611e6a565b60405180910390fd5b60038260060160006101000a81548160ff0219169083600581111561045e5761045d611a03565b5b021790555060038160060160006101000a81548160ff0219169083600581111561048b5761048a611a03565b5b02179055508373ffffffffffffffffffffffffffffffffffffffff168573ffffffffffffffffffffffffffffffffffffffff167f3e7137c85c5fe135bf524f3d40b7b7452abf51a9fed9461bf774f113502708a760405160405180910390a35050505050565b6000602052816000526040600020818154811061050d57600080fd5b9060005260206000209060070201600091509150508060000160009054906101000a900473ffffffffffffffffffffffffffffffffffffffff16908060010160009054906101000a900473ffffffffffffffffffffffffffffffffffffffff16908060020154908060030154908060040154908060050154908060060160009054906101000a900460ff16908060060160019054906101000a900460ff16905088565b60606002805480602002602001604051908101604052809291908181526020016000905b828210156107315783829060005260206000209060070201604051806101000160405290816000820160009054906101000a900473ffffffffffffffffffffffffffffffffffffffff1673ffffffffffffffffffffffffffffffffffffffff1673ffffffffffffffffffffffffffffffffffffffff1681526020016001820160009054906101000a900473ffffffffffffffffffffffffffffffffffffffff1673ffffffffffffffffffffffffffffffffffffffff1673ffffffffffffffffffffffffffffffffffffffff168152602001600282015481526020016003820154815260200160048201548152602001600582015481526020016006820160009054906101000a900460ff1660058111156106f1576106f0611a03565b5b600581111561070357610702611a03565b5b81526020016006820160019054906101000a900460ff161515151581525050815260200190600101906105d4565b50505050905090565b60008060008573ffffffffffffffffffffffffffffffffffffffff1673ffffffffffffffffffffffffffffffffffffffff168152602001908152602001600020828154811061078c5761078b611d72565b5b906000526020600020906007020190506000600283815481106107b2576107b1611d72565b5b906000526020600020906007020190508373ffffffffffffffffffffffffffffffffffffffff168260010160009054906101000a900473ffffffffffffffffffffffffffffffffffffffff1673ffffffffffffffffffffffffffffffffffffffff1614610854576040517f08c379a000000000000000000000000000000000000000000000000000000000815260040161084b90611dfe565b60405180910390fd5b6002600581111561086857610867611a03565b5b8260060160009054906101000a900460ff16600581111561088c5761088b611a03565b5b146108cc576040517f08c379a00000000000000000000000000000000000000000000000000000000081526004016108c390611e6a565b60405180910390fd5b60028260060160006101000a81548160ff021916908360058111156108f4576108f3611a03565b5b021790555060028160060160006101000a81548160ff0219169083600581111561092157610920611a03565b5b02179055508373ffffffffffffffffffffffffffffffffffffffff168573ffffffffffffffffffffffffffffffffffffffff167fde010046fdf21bf101fd8f1240014acb18bdc85e35e00dbcfcec3f20e1a6d9c060405160405180910390a35050505050565b60008060008060008060008060008060008c73ffffffffffffffffffffffffffffffffffffffff1673ffffffffffffffffffffffffffffffffffffffff1681526020019081526020016000208a815481106109e5576109e4611d72565b5b9060005260206000209060070201604051806101000160405290816000820160009054906101000a900473ffffffffffffffffffffffffffffffffffffffff1673ffffffffffffffffffffffffffffffffffffffff1673ffffffffffffffffffffffffffffffffffffffff1681526020016001820160009054906101000a900473ffffffffffffffffffffffffffffffffffffffff1673ffffffffffffffffffffffffffffffffffffffff1673ffffffffffffffffffffffffffffffffffffffff168152602001600282015481526020016003820154815260200160048201548152602001600582015481526020016006820160009054906101000a900460ff166005811115610af857610af7611a03565b5b6005811115610b0a57610b09611a03565b5b81526020016006820160019054906101000a900460ff1615151515815250509050806000015181602001518260400151836060015184608001518560a001518660c001518760e0015198509850985098509850985098509850509295985092959890939650565b60008060008573ffffffffffffffffffffffffffffffffffffffff1673ffffffffffffffffffffffffffffffffffffffff1681526020019081526020016000208281548110610bc357610bc2611d72565b5b90600052602060002090600702019050600060028381548110610be957610be8611d72565b5b906000526020600020906007020190508373ffffffffffffffffffffffffffffffffffffffff168260010160009054906101000a900473ffffffffffffffffffffffffffffffffffffffff1673ffffffffffffffffffffffffffffffffffffffff1614610c8b576040517f08c379a0000000000000000000000000000000000000000000000000000000008152600401610c8290611dfe565b60405180910390fd5b60046005811115610c9f57610c9e611a03565b5b8260060160009054906101000a900460ff166005811115610cc357610cc2611a03565b5b14610d03576040517f08c379a0000000000000000000000000000000000000000000000000000000008152600401610cfa90611ed6565b60405180910390fd5b8160060160019054906101000a900460ff1615610d55576040517f08c379a0000000000000000000000000000000000000000000000000000000008152600401610d4c90611f42565b60405180910390fd5b60058260060160006101000a81548160ff02191690836005811115610d7d57610d7c611a03565b5b021790555060058160060160006101000a81548160ff02191690836005811115610daa57610da9611a03565b5b02179055504281600301819055504282600301819055506000826005015490508260000160009054906101000a900473ffffffffffffffffffffffffffffffffffffffff1673ffffffffffffffffffffffffffffffffffffffff166108fc829081150290604051600060405180830381858888f19350505050158015610e34573d6000803e3d6000fd5b5060018360060160016101000a81548160ff02191690831515021790555060018260060160016101000a81548160ff0219169083151502179055508473ffffffffffffffffffffffffffffffffffffffff168673ffffffffffffffffffffffffffffffffffffffff167fd1515ee36975d6573d6b77d59761d53ec3158e6cf0749bd1dc6f4b11c7e7476e8560030154604051610ed09190611cf0565b60405180910390a38473ffffffffffffffffffffffffffffffffffffffff168673ffffffffffffffffffffffffffffffffffffffff167f80b60ea5380b85d798887f9b6960ec6bed9cb13081a545402ef3ccf8a984baa583604051610f359190611cf0565b60405180910390a3505050505050565b60008060008373ffffffffffffffffffffffffffffffffffffffff1673ffffffffffffffffffffffffffffffffffffffff168152602001908152602001600020805490509050919050565b60008060008573ffffffffffffffffffffffffffffffffffffffff1673ffffffffffffffffffffffffffffffffffffffff1681526020019081526020016000208281548110610fe257610fe1611d72565b5b9060005260206000209060070201905060006002838154811061100857611007611d72565b5b906000526020600020906007020190508373ffffffffffffffffffffffffffffffffffffffff168260010160009054906101000a900473ffffffffffffffffffffffffffffffffffffffff1673ffffffffffffffffffffffffffffffffffffffff16146110aa576040517f08c379a00000000000000000000000000000000000000000000000000000000081526004016110a190611dfe565b60405180910390fd5b600160058111156110be576110bd611a03565b5b8260060160009054906101000a900460ff1660058111156110e2576110e1611a03565b5b14611122576040517f08c379a000000000000000000000000000000000000000000000000000000000815260040161111990611e6a565b60405180910390fd5b60018260060160006101000a81548160ff0219169083600581111561114a57611149611a03565b5b021790555060018160060160006101000a81548160ff0219169083600581111561117757611176611a03565b5b02179055508373ffffffffffffffffffffffffffffffffffffffff168573ffffffffffffffffffffffffffffffffffffffff167f4bfd63225bb0316f3516505016f89c94a9d472b7637da9c99bc221042983e83a84600201546040516111dd9190611cf0565b60405180910390a35050505050565b80341461122e576040517f08c379a000000000000000000000000000000000000000000000000000000000815260040161122590611fd4565b60405180910390fd5b60006040518061010001604052803373ffffffffffffffffffffffffffffffffffffffff1681526020018673ffffffffffffffffffffffffffffffffffffffff16815260200185815260200160008152602001848152602001838152602001600060058111156112a1576112a0611a03565b5b81526020016000151581525090506000803373ffffffffffffffffffffffffffffffffffffffff1673ffffffffffffffffffffffffffffffffffffffff16815260200190815260200160002081908060018154018082558091505060019003906000526020600020906007020160009091909190915060008201518160000160006101000a81548173ffffffffffffffffffffffffffffffffffffffff021916908373ffffffffffffffffffffffffffffffffffffffff16021790555060208201518160010160006101000a81548173ffffffffffffffffffffffffffffffffffffffff021916908373ffffffffffffffffffffffffffffffffffffffff16021790555060408201518160020155606082015181600301556080820151816004015560a0820151816005015560c08201518160060160006101000a81548160ff021916908360058111156113f8576113f7611a03565b5b021790555060e08201518160060160016101000a81548160ff02191690831515021790555050506001600081548092919061143290612023565b919050555060026040518061010001604052803373ffffffffffffffffffffffffffffffffffffffff1681526020018773ffffffffffffffffffffffffffffffffffffffff16815260200186815260200160008152602001858152602001848152602001600060058111156114aa576114a9611a03565b5b815260200160001515815250908060018154018082558091505060019003906000526020600020906007020160009091909190915060008201518160000160006101000a81548173ffffffffffffffffffffffffffffffffffffffff021916908373ffffffffffffffffffffffffffffffffffffffff16021790555060208201518160010160006101000a81548173ffffffffffffffffffffffffffffffffffffffff021916908373ffffffffffffffffffffffffffffffffffffffff16021790555060408201518160020155606082015181600301556080820151816004015560a0820151816005015560c08201518160060160006101000a81548160ff021916908360058111156115c0576115bf611a03565b5b021790555060e08201518160060160016101000a81548160ff02191690831515021790555050508473ffffffffffffffffffffffffffffffffffffffff163373ffffffffffffffffffffffffffffffffffffffff167f783b37e6ead8c08fdd9291e23f71e1f28cd6141daa30ce5ddb9af2f72d338f698686866040516116489392919061206b565b60405180910390a35050505050565b60015481565b60008060008573ffffffffffffffffffffffffffffffffffffffff1673ffffffffffffffffffffffffffffffffffffffff16815260200190815260200160002082815481106116af576116ae611d72565b5b906000526020600020906007020190506000600283815481106116d5576116d4611d72565b5b906000526020600020906007020190508373ffffffffffffffffffffffffffffffffffffffff168260010160009054906101000a900473ffffffffffffffffffffffffffffffffffffffff1673ffffffffffffffffffffffffffffffffffffffff1614611777576040517f08c379a000000000000000000000000000000000000000000000000000000000815260040161176e90611dfe565b60405180910390fd5b6000600581111561178b5761178a611a03565b5b8260060160009054906101000a900460ff1660058111156117af576117ae611a03565b5b146117ef576040517f08c379a00000000000000000000000000000000000000000000000000000000081526004016117e6906120ee565b60405180910390fd5b60048260060160006101000a81548160ff0219169083600581111561181757611816611a03565b5b021790555060048160060160006101000a81548160ff0219169083600581111561184457611843611a03565b5b02179055508373ffffffffffffffffffffffffffffffffffffffff168573ffffffffffffffffffffffffffffffffffffffff167fe809f8b1c92785cd28fab6f2761ca16f910fc009c5a3e9b2dfe87ecae1273a7584600201546040516118aa9190611cf0565b60405180910390a35050505050565b600080fd5b600073ffffffffffffffffffffffffffffffffffffffff82169050919050565b60006118e9826118be565b9050919050565b6118f9816118de565b811461190457600080fd5b50565b600081359050611916816118f0565b92915050565b6000819050919050565b61192f8161191c565b811461193a57600080fd5b50565b60008135905061194c81611926565b92915050565b60008060006060848603121561196b5761196a6118b9565b5b600061197986828701611907565b935050602061198a86828701611907565b925050604061199b8682870161193d565b9150509250925092565b600080604083850312156119bc576119bb6118b9565b5b60006119ca85828601611907565b92505060206119db8582860161193d565b9150509250929050565b6119ee816118de565b82525050565b6119fd8161191c565b82525050565b7f4e487b7100000000000000000000000000000000000000000000000000000000600052602160045260246000fd5b60068110611a4357611a42611a03565b5b50565b6000819050611a5482611a32565b919050565b6000611a6482611a46565b9050919050565b611a7481611a59565b82525050565b60008115159050919050565b611a8f81611a7a565b82525050565b600061010082019050611aab600083018b6119e5565b611ab8602083018a6119e5565b611ac560408301896119f4565b611ad260608301886119f4565b611adf60808301876119f4565b611aec60a08301866119f4565b611af960c0830185611a6b565b611b0660e0830184611a86565b9998505050505050505050565b600081519050919050565b600082825260208201905092915050565b6000819050602082019050919050565b611b48816118de565b82525050565b611b578161191c565b82525050565b611b6681611a59565b82525050565b611b7581611a7a565b82525050565b61010082016000820151611b926000850182611b3f565b506020820151611ba56020850182611b3f565b506040820151611bb86040850182611b4e565b506060820151611bcb6060850182611b4e565b506080820151611bde6080850182611b4e565b5060a0820151611bf160a0850182611b4e565b5060c0820151611c0460c0850182611b5d565b5060e0820151611c1760e0850182611b6c565b50505050565b6000611c298383611b7b565b6101008301905092915050565b6000602082019050919050565b6000611c4e82611b13565b611c588185611b1e565b9350611c6383611b2f565b8060005b83811015611c94578151611c7b8882611c1d565b9750611c8683611c36565b925050600181019050611c67565b5085935050505092915050565b60006020820190508181036000830152611cbb8184611c43565b905092915050565b600060208284031215611cd957611cd86118b9565b5b6000611ce784828501611907565b91505092915050565b6000602082019050611d0560008301846119f4565b92915050565b60008060008060808587031215611d2557611d246118b9565b5b6000611d3387828801611907565b9450506020611d448782880161193d565b9350506040611d558782880161193d565b9250506060611d668782880161193d565b91505092959194509250565b7f4e487b7100000000000000000000000000000000000000000000000000000000600052603260045260246000fd5b600082825260208201905092915050565b7f5265636570746f7220696e6578697374656e74652e0000000000000000000000600082015250565b6000611de8601583611da1565b9150611df382611db2565b602082019050919050565b60006020820190508181036000830152611e1781611ddb565b9050919050565b7f52414d2050524f4752414d4144412e0000000000000000000000000000000000600082015250565b6000611e54600f83611da1565b9150611e5f82611e1e565b602082019050919050565b60006020820190508181036000830152611e8381611e47565b9050919050565b7f72616d206e6f7420696e207472616e7369742e00000000000000000000000000600082015250565b6000611ec0601383611da1565b9150611ecb82611e8a565b602082019050919050565b60006020820190508181036000830152611eef81611eb3565b9050919050565b7f52616d2070726f6365736f20636f6d706c657461646f2e000000000000000000600082015250565b6000611f2c601783611da1565b9150611f3782611ef6565b602082019050919050565b60006020820190508181036000830152611f5b81611f1f565b9050919050565b7f456c206d6f6e746f2064656c207061676f206465626520636f696e636964697260008201527f20636f6e20656c2070726563696f2e0000000000000000000000000000000000602082015250565b6000611fbe602f83611da1565b9150611fc982611f62565b604082019050919050565b60006020820190508181036000830152611fed81611fb1565b9050919050565b7f4e487b7100000000000000000000000000000000000000000000000000000000600052601160045260246000fd5b600061202e8261191c565b91507fffffffffffffffffffffffffffffffffffffffffffffffffffffffffffffffff82036120605761205f611ff4565b5b600182019050919050565b600060608201905061208060008301866119f4565b61208d60208301856119f4565b61209a60408301846119f4565b949350505050565b7f52414d20656e76696164612e0000000000000000000000000000000000000000600082015250565b60006120d8600c83611da1565b91506120e3826120a2565b602082019050919050565b60006020820190508181036000830152612107816120cb565b905091905056fea26469706673582212204701716544ab4c94d9b394c69c9fc1a770b7047ac7e2364e972938d197565e0664736f6c63430008120033",
  "linkReferences": {},
  "deployedLinkReferences": {}
}