{
  "_format": "hh-sol-artifact-1",
  "contractName": "Tracking",
  "sourceName": "contracts/Tracking.sol",
  "abi": [
    {
      "inputs": [],
      "stateMutability": "nonpayable",
      "type": "constructor"
    },
    {
      "anonymous": false,
      "inputs": [
        {
          "indexed": true,
          "internalType": "address",
          "name": "sender",
          "type": "address"
        },
        {
          "indexed": true,
          "internalType": "address",
          "name": "receptor",
          "type": "address"
        },
        {
          "indexed": false,
          "internalType": "uint256",
          "name": "fechaCreacion",
          "type": "uint256"
        },
        {
          "indexed": false,
          "internalType": "uint256",
          "name": "ddr",
          "type": "uint256"
        },
        {
          "indexed": false,
          "internalType": "uint256",
          "name": "precio",
          "type": "uint256"
        }
      ],
      "name": "RamCreated",
      "type": "event"
    },
    {
      "anonymous": false,
      "inputs": [
        {
          "indexed": true,
          "internalType": "address",
          "name": "sender",
          "type": "address"
        },
        {
          "indexed": true,
          "internalType": "address",
          "name": "receptor",
          "type": "address"
        },
        {
          "indexed": false,
          "internalType": "uint256",
          "name": "fechaEnvio",
          "type": "uint256"
        }
      ],
      "name": "RamDelivered",
      "type": "event"
    },
    {
      "anonymous": false,
      "inputs": [
        {
          "indexed": true,
          "internalType": "address",
          "name": "sender",
          "type": "address"
        },
        {
          "indexed": true,
          "internalType": "address",
          "name": "receptor",
          "type": "address"
        },
        {
          "indexed": false,
          "internalType": "uint256",
          "name": "fechaCreacion",
          "type": "uint256"
        }
      ],
      "name": "RamInTransit",
      "type": "event"
    },
    {
      "anonymous": false,
      "inputs": [
        {
          "indexed": true,
          "internalType": "address",
          "name": "sender",
          "type": "address"
        },
        {
          "indexed": true,
          "internalType": "address",
          "name": "receptor",
          "type": "address"
        },
        {
          "indexed": false,
          "internalType": "uint256",
          "name": "amount",
          "type": "uint256"
        }
      ],
      "name": "RamPaid",
      "type": "event"
    },
    {
      "inputs": [
        {
          "internalType": "address",
          "name": "_sender",
          "type": "address"
        },
        {
          "internalType": "address",
          "name": "_receptor",
          "type": "address"
        },
        {
          "internalType": "uint256",
          "name": "_index",
          "type": "uint256"
        }
      ],
      "name": "completeRam",
      "outputs": [],
      "stateMutability": "nonpayable",
      "type": "function"
    },
    {
      "inputs": [
        {
          "internalType": "address",
          "name": "_receptor",
          "type": "address"
        },
        {
          "internalType": "uint256",
          "name": "_fechaCreacion",
          "type": "uint256"
        },
        {
          "internalType": "uint256",
          "name": "_ddr",
          "type": "uint256"
        },
        {
          "internalType": "uint256",
          "name": "_precio",
          "type": "uint256"
        }
      ],
      "name": "createRam",
      "outputs": [],
      "stateMutability": "payable",
      "type": "function"
    },
    {
      "inputs": [],
      "name": "getAllTransactions",
      "outputs": [
        {
          "components": [
            {
              "internalType": "address",
              "name": "sender",
              "type": "address"
            },
            {
              "internalType": "address",
              "name": "receptor",
              "type": "address"
            },
            {
              "internalType": "uint256",
              "name": "fechaCreacion",
              "type": "uint256"
            },
            {
              "internalType": "uint256",
              "name": "fechaEnvio",
              "type": "uint256"
            },
            {
              "internalType": "uint256",
              "name": "ddr",
              "type": "uint256"
            },
            {
              "internalType": "uint256",
              "name": "precio",
              "type": "uint256"
            },
            {
              "internalType": "enum Tracking.RamStatus",
              "name": "status",
              "type": "uint8"
            },
            {
              "internalType": "bool",
              "name": "isPaid",
              "type": "bool"
            }
          ],
          "internalType": "struct Tracking.TypeRam[]",
          "name": "",
          "type": "tuple[]"
        }
      ],
      "stateMutability": "view",
      "type": "function"
    },
    {
      "inputs": [
        {
          "internalType": "address",
          "name": "_sender",
          "type": "address"
        },
        {
          "internalType": "uint256",
          "name": "_index",
          "type": "uint256"
        }
      ],
      "name": "getRam",
      "outputs": [
        {
          "internalType": "address",
          "name": "",
          "type": "address"
        },
        {
          "internalType": "address",
          "name": "",
          "type": "address"
        },
        {
          "internalType": "uint256",
          "name": "",
          "type": "uint256"
        },
        {
          "internalType": "uint256",
          "name": "",
          "type": "uint256"
        },
        {
          "internalType": "uint256",
          "name": "",
          "type": "uint256"
        },
        {
          "internalType": "uint256",
          "name": "",
          "type": "uint256"
        },
        {
          "internalType": "enum Tracking.RamStatus",
          "name": "",
          "type": "uint8"
        },
        {
          "internalType": "bool",
          "name": "",
          "type": "bool"
        }
      ],
      "stateMutability": "view",
      "type": "function"
    },
    {
      "inputs": [
        {
          "internalType": "address",
          "name": "_sender",
          "type": "address"
        }
      ],
      "name": "getRamsCount",
      "outputs": [
        {
          "internalType": "uint256",
          "name": "",
          "type": "uint256"
        }
      ],
      "stateMutability": "view",
      "type": "function"
    },
    {
      "inputs": [],
      "name": "ramCount",
      "outputs": [
        {
          "internalType": "uint256",
          "name": "",
          "type": "uint256"
        }
      ],
      "stateMutability": "view",
      "type": "function"
    },
    {
      "inputs": [
        {
          "internalType": "address",
          "name": "",
          "type": "address"
        },
        {
          "internalType": "uint256",
          "name": "",
          "type": "uint256"
        }
      ],
      "name": "rams",
      "outputs": [
        {
          "internalType": "address",
          "name": "sender",
          "type": "address"
        },
        {
          "internalType": "address",
          "name": "receptor",
          "type": "address"
        },
        {
          "internalType": "uint256",
          "name": "fechaCreacion",
          "type": "uint256"
        },
        {
          "internalType": "uint256",
          "name": "fechaEnvio",
          "type": "uint256"
        },
        {
          "internalType": "uint256",
          "name": "ddr",
          "type": "uint256"
        },
        {
          "internalType": "uint256",
          "name": "precio",
          "type": "uint256"
        },
        {
          "internalType": "enum Tracking.RamStatus",
          "name": "status",
          "type": "uint8"
        },
        {
          "internalType": "bool",
          "name": "isPaid",
          "type": "bool"
        }
      ],
      "stateMutability": "view",
      "type": "function"
    },
    {
      "inputs": [
        {
          "internalType": "address",
          "name": "_sender",
          "type": "address"
        },
        {
          "internalType": "address",
          "name": "_receptor",
          "type": "address"
        },
        {
          "internalType": "uint256",
          "name": "_index",
          "type": "uint256"
        }
      ],
      "name": "startRam",
      "outputs": [],
      "stateMutability": "nonpayable",
      "type": "function"
    }
  ],
  "bytecode": "0x608060405234801561001057600080fd5b506000600181905550611947806100286000396000f3fe60806040526004361061007b5760003560e01c806352d51dc91161004e57806352d51dc91461015c5780639020944314610199578063a085727d146101b5578063a3bcd4a7146101e05761007b565b80630dc7da431461008057806327506f53146100c457806340f1136e146100ef5780634be89d0b14610133575b600080fd5b34801561008c57600080fd5b506100a760048036038101906100a291906111c1565b610209565b6040516100bb9897969594939291906112b1565b60405180910390f35b3480156100d057600080fd5b506100d96102c8565b6040516100e691906114bd565b60405180910390f35b3480156100fb57600080fd5b50610116600480360381019061011191906111c1565b610452565b60405161012a9897969594939291906112b1565b60405180910390f35b34801561013f57600080fd5b5061015a600480360381019061015591906114df565b61063c565b005b34801561016857600080fd5b50610183600480360381019061017e9190611532565b610a10565b604051610190919061155f565b60405180910390f35b6101b360048036038101906101ae919061157a565b610a5b565b005b3480156101c157600080fd5b506101ca610ec6565b6040516101d7919061155f565b60405180910390f35b3480156101ec57600080fd5b50610207600480360381019061020291906114df565b610ecc565b005b6000602052816000526040600020818154811061022557600080fd5b9060005260206000209060070201600091509150508060000160009054906101000a900473ffffffffffffffffffffffffffffffffffffffff16908060010160009054906101000a900473ffffffffffffffffffffffffffffffffffffffff16908060020154908060030154908060040154908060050154908060060160009054906101000a900460ff16908060060160019054906101000a900460ff16905088565b60606002805480602002602001604051908101604052809291908181526020016000905b828210156104495783829060005260206000209060070201604051806101000160405290816000820160009054906101000a900473ffffffffffffffffffffffffffffffffffffffff1673ffffffffffffffffffffffffffffffffffffffff1673ffffffffffffffffffffffffffffffffffffffff1681526020016001820160009054906101000a900473ffffffffffffffffffffffffffffffffffffffff1673ffffffffffffffffffffffffffffffffffffffff1673ffffffffffffffffffffffffffffffffffffffff168152602001600282015481526020016003820154815260200160048201548152602001600582015481526020016006820160009054906101000a900460ff1660058111156104095761040861121f565b5b600581111561041b5761041a61121f565b5b81526020016006820160019054906101000a900460ff161515151581525050815260200190600101906102ec565b50505050905090565b60008060008060008060008060008060008c73ffffffffffffffffffffffffffffffffffffffff1673ffffffffffffffffffffffffffffffffffffffff1681526020019081526020016000208a815481106104b0576104af6115e1565b5b9060005260206000209060070201604051806101000160405290816000820160009054906101000a900473ffffffffffffffffffffffffffffffffffffffff1673ffffffffffffffffffffffffffffffffffffffff1673ffffffffffffffffffffffffffffffffffffffff1681526020016001820160009054906101000a900473ffffffffffffffffffffffffffffffffffffffff1673ffffffffffffffffffffffffffffffffffffffff1673ffffffffffffffffffffffffffffffffffffffff168152602001600282015481526020016003820154815260200160048201548152602001600582015481526020016006820160009054906101000a900460ff1660058111156105c3576105c261121f565b5b60058111156105d5576105d461121f565b5b81526020016006820160019054906101000a900460ff1615151515815250509050806000015181602001518260400151836060015184608001518560a001518660c001518760e0015198509850985098509850985098509850509295985092959890939650565b60008060008573ffffffffffffffffffffffffffffffffffffffff1673ffffffffffffffffffffffffffffffffffffffff168152602001908152602001600020828154811061068e5761068d6115e1565b5b906000526020600020906007020190506000600283815481106106b4576106b36115e1565b5b906000526020600020906007020190508373ffffffffffffffffffffffffffffffffffffffff168260010160009054906101000a900473ffffffffffffffffffffffffffffffffffffffff1673ffffffffffffffffffffffffffffffffffffffff1614610756576040517f08c379a000000000000000000000000000000000000000000000000000000000815260040161074d9061166d565b60405180910390fd5b6001600581111561076a5761076961121f565b5b8260060160009054906101000a900460ff16600581111561078e5761078d61121f565b5b146107ce576040517f08c379a00000000000000000000000000000000000000000000000000000000081526004016107c5906116d9565b60405180910390fd5b8160060160019054906101000a900460ff1615610820576040517f08c379a000000000000000000000000000000000000000000000000000000000815260040161081790611745565b60405180910390fd5b60028260060160006101000a81548160ff021916908360058111156108485761084761121f565b5b021790555060028160060160006101000a81548160ff021916908360058111156108755761087461121f565b5b02179055504281600301819055504282600301819055506000826005015490508260000160009054906101000a900473ffffffffffffffffffffffffffffffffffffffff1673ffffffffffffffffffffffffffffffffffffffff166108fc829081150290604051600060405180830381858888f193505050501580156108ff573d6000803e3d6000fd5b5060018360060160016101000a81548160ff02191690831515021790555060018260060160016101000a81548160ff0219169083151502179055508473ffffffffffffffffffffffffffffffffffffffff168673ffffffffffffffffffffffffffffffffffffffff167fd1515ee36975d6573d6b77d59761d53ec3158e6cf0749bd1dc6f4b11c7e7476e856003015460405161099b919061155f565b60405180910390a38473ffffffffffffffffffffffffffffffffffffffff168673ffffffffffffffffffffffffffffffffffffffff167f80b60ea5380b85d798887f9b6960ec6bed9cb13081a545402ef3ccf8a984baa583604051610a00919061155f565b60405180910390a3505050505050565b60008060008373ffffffffffffffffffffffffffffffffffffffff1673ffffffffffffffffffffffffffffffffffffffff168152602001908152602001600020805490509050919050565b803414610a9d576040517f08c379a0000000000000000000000000000000000000000000000000000000008152600401610a94906117d7565b60405180910390fd5b60006040518061010001604052803373ffffffffffffffffffffffffffffffffffffffff1681526020018673ffffffffffffffffffffffffffffffffffffffff1681526020018581526020016000815260200184815260200183815260200160006005811115610b1057610b0f61121f565b5b81526020016000151581525090506000803373ffffffffffffffffffffffffffffffffffffffff1673ffffffffffffffffffffffffffffffffffffffff16815260200190815260200160002081908060018154018082558091505060019003906000526020600020906007020160009091909190915060008201518160000160006101000a81548173ffffffffffffffffffffffffffffffffffffffff021916908373ffffffffffffffffffffffffffffffffffffffff16021790555060208201518160010160006101000a81548173ffffffffffffffffffffffffffffffffffffffff021916908373ffffffffffffffffffffffffffffffffffffffff16021790555060408201518160020155606082015181600301556080820151816004015560a0820151816005015560c08201518160060160006101000a81548160ff02191690836005811115610c6757610c6661121f565b5b021790555060e08201518160060160016101000a81548160ff021916908315150217905550505060016000815480929190610ca190611826565b919050555060026040518061010001604052803373ffffffffffffffffffffffffffffffffffffffff1681526020018773ffffffffffffffffffffffffffffffffffffffff1681526020018681526020016000815260200185815260200184815260200160006005811115610d1957610d1861121f565b5b815260200160001515815250908060018154018082558091505060019003906000526020600020906007020160009091909190915060008201518160000160006101000a81548173ffffffffffffffffffffffffffffffffffffffff021916908373ffffffffffffffffffffffffffffffffffffffff16021790555060208201518160010160006101000a81548173ffffffffffffffffffffffffffffffffffffffff021916908373ffffffffffffffffffffffffffffffffffffffff16021790555060408201518160020155606082015181600301556080820151816004015560a0820151816005015560c08201518160060160006101000a81548160ff02191690836005811115610e2f57610e2e61121f565b5b021790555060e08201518160060160016101000a81548160ff02191690831515021790555050508473ffffffffffffffffffffffffffffffffffffffff163373ffffffffffffffffffffffffffffffffffffffff167f60cf099234b3a6c2fb0f9529b362b79374b6c7ab855126e648e1c09dbd36fad9868686604051610eb79392919061186e565b60405180910390a35050505050565b60015481565b60008060008573ffffffffffffffffffffffffffffffffffffffff1673ffffffffffffffffffffffffffffffffffffffff1681526020019081526020016000208281548110610f1e57610f1d6115e1565b5b90600052602060002090600702019050600060028381548110610f4457610f436115e1565b5b906000526020600020906007020190508373ffffffffffffffffffffffffffffffffffffffff168260010160009054906101000a900473ffffffffffffffffffffffffffffffffffffffff1673ffffffffffffffffffffffffffffffffffffffff1614610fe6576040517f08c379a0000000000000000000000000000000000000000000000000000000008152600401610fdd9061166d565b60405180910390fd5b60006005811115610ffa57610ff961121f565b5b8260060160009054906101000a900460ff16600581111561101e5761101d61121f565b5b1461105e576040517f08c379a0000000000000000000000000000000000000000000000000000000008152600401611055906118f1565b60405180910390fd5b60018260060160006101000a81548160ff021916908360058111156110865761108561121f565b5b021790555060018160060160006101000a81548160ff021916908360058111156110b3576110b261121f565b5b02179055508373ffffffffffffffffffffffffffffffffffffffff168573ffffffffffffffffffffffffffffffffffffffff167fb9b60b01a36f4df708984dc76f2c0b3568b070dcceef313fbde2b288f347f5518460020154604051611119919061155f565b60405180910390a35050505050565b600080fd5b600073ffffffffffffffffffffffffffffffffffffffff82169050919050565b60006111588261112d565b9050919050565b6111688161114d565b811461117357600080fd5b50565b6000813590506111858161115f565b92915050565b6000819050919050565b61119e8161118b565b81146111a957600080fd5b50565b6000813590506111bb81611195565b92915050565b600080604083850312156111d8576111d7611128565b5b60006111e685828601611176565b92505060206111f7858286016111ac565b9150509250929050565b61120a8161114d565b82525050565b6112198161118b565b82525050565b7f4e487b7100000000000000000000000000000000000000000000000000000000600052602160045260246000fd5b6006811061125f5761125e61121f565b5b50565b60008190506112708261124e565b919050565b600061128082611262565b9050919050565b61129081611275565b82525050565b60008115159050919050565b6112ab81611296565b82525050565b6000610100820190506112c7600083018b611201565b6112d4602083018a611201565b6112e16040830189611210565b6112ee6060830188611210565b6112fb6080830187611210565b61130860a0830186611210565b61131560c0830185611287565b61132260e08301846112a2565b9998505050505050505050565b600081519050919050565b600082825260208201905092915050565b6000819050602082019050919050565b6113648161114d565b82525050565b6113738161118b565b82525050565b61138281611275565b82525050565b61139181611296565b82525050565b610100820160008201516113ae600085018261135b565b5060208201516113c1602085018261135b565b5060408201516113d4604085018261136a565b5060608201516113e7606085018261136a565b5060808201516113fa608085018261136a565b5060a082015161140d60a085018261136a565b5060c082015161142060c0850182611379565b5060e082015161143360e0850182611388565b50505050565b60006114458383611397565b6101008301905092915050565b6000602082019050919050565b600061146a8261132f565b611474818561133a565b935061147f8361134b565b8060005b838110156114b05781516114978882611439565b97506114a283611452565b925050600181019050611483565b5085935050505092915050565b600060208201905081810360008301526114d7818461145f565b905092915050565b6000806000606084860312156114f8576114f7611128565b5b600061150686828701611176565b935050602061151786828701611176565b9250506040611528868287016111ac565b9150509250925092565b60006020828403121561154857611547611128565b5b600061155684828501611176565b91505092915050565b60006020820190506115746000830184611210565b92915050565b6000806000806080858703121561159457611593611128565b5b60006115a287828801611176565b94505060206115b3878288016111ac565b93505060406115c4878288016111ac565b92505060606115d5878288016111ac565b91505092959194509250565b7f4e487b7100000000000000000000000000000000000000000000000000000000600052603260045260246000fd5b600082825260208201905092915050565b7f496e76616c6964207265636570746f722e000000000000000000000000000000600082015250565b6000611657601183611610565b915061166282611621565b602082019050919050565b600060208201905081810360008301526116868161164a565b9050919050565b7f72616d206e6f7420696e207472616e7369742e00000000000000000000000000600082015250565b60006116c3601383611610565b91506116ce8261168d565b602082019050919050565b600060208201905081810360008301526116f2816116b6565b9050919050565b7f72616d20616c726561647920706169642e000000000000000000000000000000600082015250565b600061172f601183611610565b915061173a826116f9565b602082019050919050565b6000602082019050818103600083015261175e81611722565b9050919050565b7f5061796d656e7420616d6f756e74206d757374206d617463682074686520707260008201527f6563696f2e000000000000000000000000000000000000000000000000000000602082015250565b60006117c1602583611610565b91506117cc82611765565b604082019050919050565b600060208201905081810360008301526117f0816117b4565b9050919050565b7f4e487b7100000000000000000000000000000000000000000000000000000000600052601160045260246000fd5b60006118318261118b565b91507fffffffffffffffffffffffffffffffffffffffffffffffffffffffffffffffff8203611863576118626117f7565b5b600182019050919050565b60006060820190506118836000830186611210565b6118906020830185611210565b61189d6040830184611210565b949350505050565b7f72616d20616c726561647920696e207472616e7369742e000000000000000000600082015250565b60006118db601783611610565b91506118e6826118a5565b602082019050919050565b6000602082019050818103600083015261190a816118ce565b905091905056fea2646970667358221220b865ce1aa65bfad2320c505c0fbd85d1ed494960f8b13d9093e2bd8ea2e49fc364736f6c63430008120033",
  "linkReferences": {},
  "deployedLinkReferences": {}
}