{
  "_format": "hh-sol-artifact-1",
  "contractName": "Tracking",
  "sourceName": "contracts/Tracking.sol",
  "abi": [
    {
      "inputs": [],
      "stateMutability": "nonpayable",
      "type": "constructor"
    },
    {
      "anonymous": false,
      "inputs": [
        {
          "indexed": true,
          "internalType": "address",
          "name": "sender",
          "type": "address"
        },
        {
          "indexed": true,
          "internalType": "address",
          "name": "receptor",
          "type": "address"
        },
        {
          "indexed": false,
          "internalType": "uint256",
          "name": "fechaCreacion",
          "type": "uint256"
        },
        {
          "indexed": false,
          "internalType": "uint256",
          "name": "tipo",
          "type": "uint256"
        },
        {
          "indexed": false,
          "internalType": "uint256",
          "name": "cantidad",
          "type": "uint256"
        }
      ],
      "name": "RamAssembled",
      "type": "event"
    },
    {
      "anonymous": false,
      "inputs": [
        {
          "indexed": true,
          "internalType": "address",
          "name": "sender",
          "type": "address"
        },
        {
          "indexed": true,
          "internalType": "address",
          "name": "receptor",
          "type": "address"
        },
        {
          "indexed": false,
          "internalType": "uint256",
          "name": "fechaEnvio",
          "type": "uint256"
        }
      ],
      "name": "RamDelivered",
      "type": "event"
    },
    {
      "anonymous": false,
      "inputs": [
        {
          "indexed": true,
          "internalType": "address",
          "name": "sender",
          "type": "address"
        },
        {
          "indexed": true,
          "internalType": "address",
          "name": "receptor",
          "type": "address"
        },
        {
          "indexed": false,
          "internalType": "uint256",
          "name": "fechaCreacion",
          "type": "uint256"
        }
      ],
      "name": "RamEnviada",
      "type": "event"
    },
    {
      "anonymous": false,
      "inputs": [
        {
          "indexed": true,
          "internalType": "address",
          "name": "sender",
          "type": "address"
        },
        {
          "indexed": true,
          "internalType": "address",
          "name": "receptor",
          "type": "address"
        }
      ],
      "name": "RamPacked",
      "type": "event"
    },
    {
      "anonymous": false,
      "inputs": [
        {
          "indexed": true,
          "internalType": "address",
          "name": "sender",
          "type": "address"
        },
        {
          "indexed": true,
          "internalType": "address",
          "name": "receptor",
          "type": "address"
        },
        {
          "indexed": false,
          "internalType": "uint256",
          "name": "amount",
          "type": "uint256"
        }
      ],
      "name": "RamPaid",
      "type": "event"
    },
    {
      "anonymous": false,
      "inputs": [
        {
          "indexed": true,
          "internalType": "address",
          "name": "sender",
          "type": "address"
        },
        {
          "indexed": true,
          "internalType": "address",
          "name": "receptor",
          "type": "address"
        }
      ],
      "name": "RamProgrammed",
      "type": "event"
    },
    {
      "anonymous": false,
      "inputs": [
        {
          "indexed": true,
          "internalType": "address",
          "name": "sender",
          "type": "address"
        },
        {
          "indexed": true,
          "internalType": "address",
          "name": "receptor",
          "type": "address"
        }
      ],
      "name": "RamTested",
      "type": "event"
    },
    {
      "inputs": [
        {
          "internalType": "address",
          "name": "_sender",
          "type": "address"
        },
        {
          "internalType": "address",
          "name": "_receptor",
          "type": "address"
        },
        {
          "internalType": "uint256",
          "name": "_index",
          "type": "uint256"
        }
      ],
      "name": "completeRam",
      "outputs": [],
      "stateMutability": "nonpayable",
      "type": "function"
    },
    {
      "inputs": [
        {
          "internalType": "address",
          "name": "_receptor",
          "type": "address"
        },
        {
          "internalType": "uint256",
          "name": "_fechaCreacion",
          "type": "uint256"
        },
        {
          "internalType": "uint256",
          "name": "_tipo",
          "type": "uint256"
        },
        {
          "internalType": "uint256",
          "name": "_cantidad",
          "type": "uint256"
        }
      ],
      "name": "createRam",
      "outputs": [],
      "stateMutability": "payable",
      "type": "function"
    },
    {
      "inputs": [],
      "name": "getAllTransactions",
      "outputs": [
        {
          "components": [
            {
              "internalType": "address",
              "name": "sender",
              "type": "address"
            },
            {
              "internalType": "address",
              "name": "receptor",
              "type": "address"
            },
            {
              "internalType": "uint256",
              "name": "fechaCreacion",
              "type": "uint256"
            },
            {
              "internalType": "uint256",
              "name": "fechaEnvio",
              "type": "uint256"
            },
            {
              "internalType": "uint256",
              "name": "tipo",
              "type": "uint256"
            },
            {
              "internalType": "uint256",
              "name": "cantidad",
              "type": "uint256"
            },
            {
              "internalType": "enum Tracking.RamStatus",
              "name": "status",
              "type": "uint8"
            },
            {
              "internalType": "bool",
              "name": "isPaid",
              "type": "bool"
            }
          ],
          "internalType": "struct Tracking.TypeRam[]",
          "name": "",
          "type": "tuple[]"
        }
      ],
      "stateMutability": "view",
      "type": "function"
    },
    {
      "inputs": [
        {
          "internalType": "address",
          "name": "_sender",
          "type": "address"
        },
        {
          "internalType": "uint256",
          "name": "_index",
          "type": "uint256"
        }
      ],
      "name": "getRam",
      "outputs": [
        {
          "internalType": "address",
          "name": "",
          "type": "address"
        },
        {
          "internalType": "address",
          "name": "",
          "type": "address"
        },
        {
          "internalType": "uint256",
          "name": "",
          "type": "uint256"
        },
        {
          "internalType": "uint256",
          "name": "",
          "type": "uint256"
        },
        {
          "internalType": "uint256",
          "name": "",
          "type": "uint256"
        },
        {
          "internalType": "uint256",
          "name": "",
          "type": "uint256"
        },
        {
          "internalType": "enum Tracking.RamStatus",
          "name": "",
          "type": "uint8"
        },
        {
          "internalType": "bool",
          "name": "",
          "type": "bool"
        }
      ],
      "stateMutability": "view",
      "type": "function"
    },
    {
      "inputs": [
        {
          "internalType": "address",
          "name": "_sender",
          "type": "address"
        }
      ],
      "name": "getRamsCount",
      "outputs": [
        {
          "internalType": "uint256",
          "name": "",
          "type": "uint256"
        }
      ],
      "stateMutability": "view",
      "type": "function"
    },
    {
      "inputs": [
        {
          "internalType": "address",
          "name": "_sender",
          "type": "address"
        },
        {
          "internalType": "address",
          "name": "_receptor",
          "type": "address"
        },
        {
          "internalType": "uint256",
          "name": "_index",
          "type": "uint256"
        }
      ],
      "name": "packedRam",
      "outputs": [],
      "stateMutability": "nonpayable",
      "type": "function"
    },
    {
      "inputs": [
        {
          "internalType": "address",
          "name": "_sender",
          "type": "address"
        },
        {
          "internalType": "address",
          "name": "_receptor",
          "type": "address"
        },
        {
          "internalType": "uint256",
          "name": "_index",
          "type": "uint256"
        }
      ],
      "name": "programmedRam",
      "outputs": [],
      "stateMutability": "nonpayable",
      "type": "function"
    },
    {
      "inputs": [],
      "name": "ramCount",
      "outputs": [
        {
          "internalType": "uint256",
          "name": "",
          "type": "uint256"
        }
      ],
      "stateMutability": "view",
      "type": "function"
    },
    {
      "inputs": [
        {
          "internalType": "address",
          "name": "",
          "type": "address"
        },
        {
          "internalType": "uint256",
          "name": "",
          "type": "uint256"
        }
      ],
      "name": "rams",
      "outputs": [
        {
          "internalType": "address",
          "name": "sender",
          "type": "address"
        },
        {
          "internalType": "address",
          "name": "receptor",
          "type": "address"
        },
        {
          "internalType": "uint256",
          "name": "fechaCreacion",
          "type": "uint256"
        },
        {
          "internalType": "uint256",
          "name": "fechaEnvio",
          "type": "uint256"
        },
        {
          "internalType": "uint256",
          "name": "tipo",
          "type": "uint256"
        },
        {
          "internalType": "uint256",
          "name": "cantidad",
          "type": "uint256"
        },
        {
          "internalType": "enum Tracking.RamStatus",
          "name": "status",
          "type": "uint8"
        },
        {
          "internalType": "bool",
          "name": "isPaid",
          "type": "bool"
        }
      ],
      "stateMutability": "view",
      "type": "function"
    },
    {
      "inputs": [
        {
          "internalType": "address",
          "name": "_sender",
          "type": "address"
        },
        {
          "internalType": "address",
          "name": "_receptor",
          "type": "address"
        },
        {
          "internalType": "uint256",
          "name": "_index",
          "type": "uint256"
        }
      ],
      "name": "startRam",
      "outputs": [],
      "stateMutability": "nonpayable",
      "type": "function"
    },
    {
      "inputs": [
        {
          "internalType": "address",
          "name": "_sender",
          "type": "address"
        },
        {
          "internalType": "address",
          "name": "_receptor",
          "type": "address"
        },
        {
          "internalType": "uint256",
          "name": "_index",
          "type": "uint256"
        }
      ],
      "name": "testRam",
      "outputs": [],
      "stateMutability": "nonpayable",
      "type": "function"
    }
  ],
  "bytecode": "0x608060405234801561001057600080fd5b506000600181905550612135806100286000396000f3fe60806040526004361061009b5760003560e01c80634be89d0b116100645780634be89d0b146101a557806352d51dc9146101ce578063755969fc1461020b5780639020944314610234578063a085727d14610250578063a3bcd4a71461027b5761009b565b80623c80d8146100a05780630dc7da43146100c957806327506f531461010d578063366576651461013857806340f1136e14610161575b600080fd5b3480156100ac57600080fd5b506100c760048036038101906100c29190611943565b6102a4565b005b3480156100d557600080fd5b506100f060048036038101906100eb9190611996565b6104f1565b604051610104989796959493929190611a86565b60405180910390f35b34801561011957600080fd5b506101226105b0565b60405161012f9190611c92565b60405180910390f35b34801561014457600080fd5b5061015f600480360381019061015a9190611943565b61073a565b005b34801561016d57600080fd5b5061018860048036038101906101839190611996565b610987565b60405161019c989796959493929190611a86565b60405180910390f35b3480156101b157600080fd5b506101cc60048036038101906101c79190611943565b610b71565b005b3480156101da57600080fd5b506101f560048036038101906101f09190611cb4565b610f45565b6040516102029190611ce1565b60405180910390f35b34801561021757600080fd5b50610232600480360381019061022d9190611943565b610f90565b005b61024e60048036038101906102499190611cfc565b6111dd565b005b34801561025c57600080fd5b50610265611648565b6040516102729190611ce1565b60405180910390f35b34801561028757600080fd5b506102a2600480360381019061029d9190611943565b61164e565b005b60008060008573ffffffffffffffffffffffffffffffffffffffff1673ffffffffffffffffffffffffffffffffffffffff16815260200190815260200160002082815481106102f6576102f5611d63565b5b9060005260206000209060070201905060006002838154811061031c5761031b611d63565b5b906000526020600020906007020190508373ffffffffffffffffffffffffffffffffffffffff168260010160009054906101000a900473ffffffffffffffffffffffffffffffffffffffff1673ffffffffffffffffffffffffffffffffffffffff16146103be576040517f08c379a00000000000000000000000000000000000000000000000000000000081526004016103b590611def565b60405180910390fd5b600260058111156103d2576103d16119f4565b5b8260060160009054906101000a900460ff1660058111156103f6576103f56119f4565b5b14610436576040517f08c379a000000000000000000000000000000000000000000000000000000000815260040161042d90611e5b565b60405180910390fd5b60038260060160006101000a81548160ff0219169083600581111561045e5761045d6119f4565b5b021790555060038160060160006101000a81548160ff0219169083600581111561048b5761048a6119f4565b5b02179055508373ffffffffffffffffffffffffffffffffffffffff168573ffffffffffffffffffffffffffffffffffffffff167f3e7137c85c5fe135bf524f3d40b7b7452abf51a9fed9461bf774f113502708a760405160405180910390a35050505050565b6000602052816000526040600020818154811061050d57600080fd5b9060005260206000209060070201600091509150508060000160009054906101000a900473ffffffffffffffffffffffffffffffffffffffff16908060010160009054906101000a900473ffffffffffffffffffffffffffffffffffffffff16908060020154908060030154908060040154908060050154908060060160009054906101000a900460ff16908060060160019054906101000a900460ff16905088565b60606002805480602002602001604051908101604052809291908181526020016000905b828210156107315783829060005260206000209060070201604051806101000160405290816000820160009054906101000a900473ffffffffffffffffffffffffffffffffffffffff1673ffffffffffffffffffffffffffffffffffffffff1673ffffffffffffffffffffffffffffffffffffffff1681526020016001820160009054906101000a900473ffffffffffffffffffffffffffffffffffffffff1673ffffffffffffffffffffffffffffffffffffffff1673ffffffffffffffffffffffffffffffffffffffff168152602001600282015481526020016003820154815260200160048201548152602001600582015481526020016006820160009054906101000a900460ff1660058111156106f1576106f06119f4565b5b6005811115610703576107026119f4565b5b81526020016006820160019054906101000a900460ff161515151581525050815260200190600101906105d4565b50505050905090565b60008060008573ffffffffffffffffffffffffffffffffffffffff1673ffffffffffffffffffffffffffffffffffffffff168152602001908152602001600020828154811061078c5761078b611d63565b5b906000526020600020906007020190506000600283815481106107b2576107b1611d63565b5b906000526020600020906007020190508373ffffffffffffffffffffffffffffffffffffffff168260010160009054906101000a900473ffffffffffffffffffffffffffffffffffffffff1673ffffffffffffffffffffffffffffffffffffffff1614610854576040517f08c379a000000000000000000000000000000000000000000000000000000000815260040161084b90611def565b60405180910390fd5b60016005811115610868576108676119f4565b5b8260060160009054906101000a900460ff16600581111561088c5761088b6119f4565b5b146108cc576040517f08c379a00000000000000000000000000000000000000000000000000000000081526004016108c390611e5b565b60405180910390fd5b60028260060160006101000a81548160ff021916908360058111156108f4576108f36119f4565b5b021790555060028160060160006101000a81548160ff02191690836005811115610921576109206119f4565b5b02179055508373ffffffffffffffffffffffffffffffffffffffff168573ffffffffffffffffffffffffffffffffffffffff167fde010046fdf21bf101fd8f1240014acb18bdc85e35e00dbcfcec3f20e1a6d9c060405160405180910390a35050505050565b60008060008060008060008060008060008c73ffffffffffffffffffffffffffffffffffffffff1673ffffffffffffffffffffffffffffffffffffffff1681526020019081526020016000208a815481106109e5576109e4611d63565b5b9060005260206000209060070201604051806101000160405290816000820160009054906101000a900473ffffffffffffffffffffffffffffffffffffffff1673ffffffffffffffffffffffffffffffffffffffff1673ffffffffffffffffffffffffffffffffffffffff1681526020016001820160009054906101000a900473ffffffffffffffffffffffffffffffffffffffff1673ffffffffffffffffffffffffffffffffffffffff1673ffffffffffffffffffffffffffffffffffffffff168152602001600282015481526020016003820154815260200160048201548152602001600582015481526020016006820160009054906101000a900460ff166005811115610af857610af76119f4565b5b6005811115610b0a57610b096119f4565b5b81526020016006820160019054906101000a900460ff1615151515815250509050806000015181602001518260400151836060015184608001518560a001518660c001518760e0015198509850985098509850985098509850509295985092959890939650565b60008060008573ffffffffffffffffffffffffffffffffffffffff1673ffffffffffffffffffffffffffffffffffffffff1681526020019081526020016000208281548110610bc357610bc2611d63565b5b90600052602060002090600702019050600060028381548110610be957610be8611d63565b5b906000526020600020906007020190508373ffffffffffffffffffffffffffffffffffffffff168260010160009054906101000a900473ffffffffffffffffffffffffffffffffffffffff1673ffffffffffffffffffffffffffffffffffffffff1614610c8b576040517f08c379a0000000000000000000000000000000000000000000000000000000008152600401610c8290611def565b60405180910390fd5b60046005811115610c9f57610c9e6119f4565b5b8260060160009054906101000a900460ff166005811115610cc357610cc26119f4565b5b14610d03576040517f08c379a0000000000000000000000000000000000000000000000000000000008152600401610cfa90611ec7565b60405180910390fd5b8160060160019054906101000a900460ff1615610d55576040517f08c379a0000000000000000000000000000000000000000000000000000000008152600401610d4c90611f33565b60405180910390fd5b60058260060160006101000a81548160ff02191690836005811115610d7d57610d7c6119f4565b5b021790555060058160060160006101000a81548160ff02191690836005811115610daa57610da96119f4565b5b02179055504281600301819055504282600301819055506000826005015490508260000160009054906101000a900473ffffffffffffffffffffffffffffffffffffffff1673ffffffffffffffffffffffffffffffffffffffff166108fc829081150290604051600060405180830381858888f19350505050158015610e34573d6000803e3d6000fd5b5060018360060160016101000a81548160ff02191690831515021790555060018260060160016101000a81548160ff0219169083151502179055508473ffffffffffffffffffffffffffffffffffffffff168673ffffffffffffffffffffffffffffffffffffffff167fd1515ee36975d6573d6b77d59761d53ec3158e6cf0749bd1dc6f4b11c7e7476e8560030154604051610ed09190611ce1565b60405180910390a38473ffffffffffffffffffffffffffffffffffffffff168673ffffffffffffffffffffffffffffffffffffffff167f80b60ea5380b85d798887f9b6960ec6bed9cb13081a545402ef3ccf8a984baa583604051610f359190611ce1565b60405180910390a3505050505050565b60008060008373ffffffffffffffffffffffffffffffffffffffff1673ffffffffffffffffffffffffffffffffffffffff168152602001908152602001600020805490509050919050565b60008060008573ffffffffffffffffffffffffffffffffffffffff1673ffffffffffffffffffffffffffffffffffffffff1681526020019081526020016000208281548110610fe257610fe1611d63565b5b9060005260206000209060070201905060006002838154811061100857611007611d63565b5b906000526020600020906007020190508373ffffffffffffffffffffffffffffffffffffffff168260010160009054906101000a900473ffffffffffffffffffffffffffffffffffffffff1673ffffffffffffffffffffffffffffffffffffffff16146110aa576040517f08c379a00000000000000000000000000000000000000000000000000000000081526004016110a190611def565b60405180910390fd5b600060058111156110be576110bd6119f4565b5b8260060160009054906101000a900460ff1660058111156110e2576110e16119f4565b5b14611122576040517f08c379a000000000000000000000000000000000000000000000000000000000815260040161111990611e5b565b60405180910390fd5b60018260060160006101000a81548160ff0219169083600581111561114a576111496119f4565b5b021790555060018160060160006101000a81548160ff02191690836005811115611177576111766119f4565b5b02179055508373ffffffffffffffffffffffffffffffffffffffff168573ffffffffffffffffffffffffffffffffffffffff167f257dffdd1d28dcf0ee93c0aecc2b9f444e929722eb051082351d932767aea8e760405160405180910390a35050505050565b80341461121f576040517f08c379a000000000000000000000000000000000000000000000000000000000815260040161121690611fc5565b60405180910390fd5b60006040518061010001604052803373ffffffffffffffffffffffffffffffffffffffff1681526020018673ffffffffffffffffffffffffffffffffffffffff1681526020018581526020016000815260200184815260200183815260200160006005811115611292576112916119f4565b5b81526020016000151581525090506000803373ffffffffffffffffffffffffffffffffffffffff1673ffffffffffffffffffffffffffffffffffffffff16815260200190815260200160002081908060018154018082558091505060019003906000526020600020906007020160009091909190915060008201518160000160006101000a81548173ffffffffffffffffffffffffffffffffffffffff021916908373ffffffffffffffffffffffffffffffffffffffff16021790555060208201518160010160006101000a81548173ffffffffffffffffffffffffffffffffffffffff021916908373ffffffffffffffffffffffffffffffffffffffff16021790555060408201518160020155606082015181600301556080820151816004015560a0820151816005015560c08201518160060160006101000a81548160ff021916908360058111156113e9576113e86119f4565b5b021790555060e08201518160060160016101000a81548160ff02191690831515021790555050506001600081548092919061142390612014565b919050555060026040518061010001604052803373ffffffffffffffffffffffffffffffffffffffff1681526020018773ffffffffffffffffffffffffffffffffffffffff168152602001868152602001600081526020018581526020018481526020016000600581111561149b5761149a6119f4565b5b815260200160001515815250908060018154018082558091505060019003906000526020600020906007020160009091909190915060008201518160000160006101000a81548173ffffffffffffffffffffffffffffffffffffffff021916908373ffffffffffffffffffffffffffffffffffffffff16021790555060208201518160010160006101000a81548173ffffffffffffffffffffffffffffffffffffffff021916908373ffffffffffffffffffffffffffffffffffffffff16021790555060408201518160020155606082015181600301556080820151816004015560a0820151816005015560c08201518160060160006101000a81548160ff021916908360058111156115b1576115b06119f4565b5b021790555060e08201518160060160016101000a81548160ff02191690831515021790555050508473ffffffffffffffffffffffffffffffffffffffff163373ffffffffffffffffffffffffffffffffffffffff167f783b37e6ead8c08fdd9291e23f71e1f28cd6141daa30ce5ddb9af2f72d338f698686866040516116399392919061205c565b60405180910390a35050505050565b60015481565b60008060008573ffffffffffffffffffffffffffffffffffffffff1673ffffffffffffffffffffffffffffffffffffffff16815260200190815260200160002082815481106116a05761169f611d63565b5b906000526020600020906007020190506000600283815481106116c6576116c5611d63565b5b906000526020600020906007020190508373ffffffffffffffffffffffffffffffffffffffff168260010160009054906101000a900473ffffffffffffffffffffffffffffffffffffffff1673ffffffffffffffffffffffffffffffffffffffff1614611768576040517f08c379a000000000000000000000000000000000000000000000000000000000815260040161175f90611def565b60405180910390fd5b6003600581111561177c5761177b6119f4565b5b8260060160009054906101000a900460ff1660058111156117a05761179f6119f4565b5b146117e0576040517f08c379a00000000000000000000000000000000000000000000000000000000081526004016117d7906120df565b60405180910390fd5b60048260060160006101000a81548160ff02191690836005811115611808576118076119f4565b5b021790555060048160060160006101000a81548160ff02191690836005811115611835576118346119f4565b5b02179055508373ffffffffffffffffffffffffffffffffffffffff168573ffffffffffffffffffffffffffffffffffffffff167fe809f8b1c92785cd28fab6f2761ca16f910fc009c5a3e9b2dfe87ecae1273a75846002015460405161189b9190611ce1565b60405180910390a35050505050565b600080fd5b600073ffffffffffffffffffffffffffffffffffffffff82169050919050565b60006118da826118af565b9050919050565b6118ea816118cf565b81146118f557600080fd5b50565b600081359050611907816118e1565b92915050565b6000819050919050565b6119208161190d565b811461192b57600080fd5b50565b60008135905061193d81611917565b92915050565b60008060006060848603121561195c5761195b6118aa565b5b600061196a868287016118f8565b935050602061197b868287016118f8565b925050604061198c8682870161192e565b9150509250925092565b600080604083850312156119ad576119ac6118aa565b5b60006119bb858286016118f8565b92505060206119cc8582860161192e565b9150509250929050565b6119df816118cf565b82525050565b6119ee8161190d565b82525050565b7f4e487b7100000000000000000000000000000000000000000000000000000000600052602160045260246000fd5b60068110611a3457611a336119f4565b5b50565b6000819050611a4582611a23565b919050565b6000611a5582611a37565b9050919050565b611a6581611a4a565b82525050565b60008115159050919050565b611a8081611a6b565b82525050565b600061010082019050611a9c600083018b6119d6565b611aa9602083018a6119d6565b611ab660408301896119e5565b611ac360608301886119e5565b611ad060808301876119e5565b611add60a08301866119e5565b611aea60c0830185611a5c565b611af760e0830184611a77565b9998505050505050505050565b600081519050919050565b600082825260208201905092915050565b6000819050602082019050919050565b611b39816118cf565b82525050565b611b488161190d565b82525050565b611b5781611a4a565b82525050565b611b6681611a6b565b82525050565b61010082016000820151611b836000850182611b30565b506020820151611b966020850182611b30565b506040820151611ba96040850182611b3f565b506060820151611bbc6060850182611b3f565b506080820151611bcf6080850182611b3f565b5060a0820151611be260a0850182611b3f565b5060c0820151611bf560c0850182611b4e565b5060e0820151611c0860e0850182611b5d565b50505050565b6000611c1a8383611b6c565b6101008301905092915050565b6000602082019050919050565b6000611c3f82611b04565b611c498185611b0f565b9350611c5483611b20565b8060005b83811015611c85578151611c6c8882611c0e565b9750611c7783611c27565b925050600181019050611c58565b5085935050505092915050565b60006020820190508181036000830152611cac8184611c34565b905092915050565b600060208284031215611cca57611cc96118aa565b5b6000611cd8848285016118f8565b91505092915050565b6000602082019050611cf660008301846119e5565b92915050565b60008060008060808587031215611d1657611d156118aa565b5b6000611d24878288016118f8565b9450506020611d358782880161192e565b9350506040611d468782880161192e565b9250506060611d578782880161192e565b91505092959194509250565b7f4e487b7100000000000000000000000000000000000000000000000000000000600052603260045260246000fd5b600082825260208201905092915050565b7f5265636570746f7220696e6578697374656e74652e0000000000000000000000600082015250565b6000611dd9601583611d92565b9150611de482611da3565b602082019050919050565b60006020820190508181036000830152611e0881611dcc565b9050919050565b7f52414d2050524f4752414d4144412e0000000000000000000000000000000000600082015250565b6000611e45600f83611d92565b9150611e5082611e0f565b602082019050919050565b60006020820190508181036000830152611e7481611e38565b9050919050565b7f72616d206e6f7420696e207472616e7369742e00000000000000000000000000600082015250565b6000611eb1601383611d92565b9150611ebc82611e7b565b602082019050919050565b60006020820190508181036000830152611ee081611ea4565b9050919050565b7f52616d2070726f6365736f20636f6d706c657461646f2e000000000000000000600082015250565b6000611f1d601783611d92565b9150611f2882611ee7565b602082019050919050565b60006020820190508181036000830152611f4c81611f10565b9050919050565b7f456c206d6f6e746f2064656c207061676f206465626520636f696e636964697260008201527f20636f6e20656c2063616e74696461642e000000000000000000000000000000602082015250565b6000611faf603183611d92565b9150611fba82611f53565b604082019050919050565b60006020820190508181036000830152611fde81611fa2565b9050919050565b7f4e487b7100000000000000000000000000000000000000000000000000000000600052601160045260246000fd5b600061201f8261190d565b91507fffffffffffffffffffffffffffffffffffffffffffffffffffffffffffffffff820361205157612050611fe5565b5b600182019050919050565b600060608201905061207160008301866119e5565b61207e60208301856119e5565b61208b60408301846119e5565b949350505050565b7f52414d20656e76696164612e0000000000000000000000000000000000000000600082015250565b60006120c9600c83611d92565b91506120d482612093565b602082019050919050565b600060208201905081810360008301526120f8816120bc565b905091905056fea2646970667358221220330515d4faf904d2cbe86a9c5edde2e0e9a0e6a05373bc31611686e6a61bc50964736f6c63430008120033",
  "linkReferences": {},
  "deployedLinkReferences": {}
}