{
  "_format": "hh-sol-artifact-1",
  "contractName": "Tracking",
  "sourceName": "contracts/Tracking.sol",
  "abi": [
    {
      "inputs": [],
      "stateMutability": "nonpayable",
      "type": "constructor"
    },
    {
      "anonymous": false,
      "inputs": [
        {
          "indexed": true,
          "internalType": "address",
          "name": "sender",
          "type": "address"
        },
        {
          "indexed": true,
          "internalType": "address",
          "name": "receptor",
          "type": "address"
        },
        {
          "indexed": false,
          "internalType": "uint256",
          "name": "fechaCreacion",
          "type": "uint256"
        },
        {
          "indexed": false,
          "internalType": "uint256",
          "name": "ddr",
          "type": "uint256"
        },
        {
          "indexed": false,
          "internalType": "uint256",
          "name": "precio",
          "type": "uint256"
        }
      ],
      "name": "RamAssembled",
      "type": "event"
    },
    {
      "anonymous": false,
      "inputs": [
        {
          "indexed": true,
          "internalType": "address",
          "name": "sender",
          "type": "address"
        },
        {
          "indexed": true,
          "internalType": "address",
          "name": "receptor",
          "type": "address"
        },
        {
          "indexed": false,
          "internalType": "uint256",
          "name": "fechaFinal",
          "type": "uint256"
        }
      ],
      "name": "RamDelivered",
      "type": "event"
    },
    {
      "anonymous": false,
      "inputs": [
        {
          "indexed": true,
          "internalType": "address",
          "name": "sender",
          "type": "address"
        },
        {
          "indexed": true,
          "internalType": "address",
          "name": "receptor",
          "type": "address"
        },
        {
          "indexed": false,
          "internalType": "uint256",
          "name": "fechaCreacion",
          "type": "uint256"
        }
      ],
      "name": "RamEnviada",
      "type": "event"
    },
    {
      "anonymous": false,
      "inputs": [
        {
          "indexed": true,
          "internalType": "address",
          "name": "sender",
          "type": "address"
        },
        {
          "indexed": true,
          "internalType": "address",
          "name": "receptor",
          "type": "address"
        }
      ],
      "name": "RamPacked",
      "type": "event"
    },
    {
      "anonymous": false,
      "inputs": [
        {
          "indexed": true,
          "internalType": "address",
          "name": "sender",
          "type": "address"
        },
        {
          "indexed": true,
          "internalType": "address",
          "name": "receptor",
          "type": "address"
        },
        {
          "indexed": false,
          "internalType": "uint256",
          "name": "amount",
          "type": "uint256"
        }
      ],
      "name": "RamPaid",
      "type": "event"
    },
    {
      "anonymous": false,
      "inputs": [
        {
          "indexed": true,
          "internalType": "address",
          "name": "sender",
          "type": "address"
        },
        {
          "indexed": true,
          "internalType": "address",
          "name": "receptor",
          "type": "address"
        }
      ],
      "name": "RamProgrammed",
      "type": "event"
    },
    {
      "anonymous": false,
      "inputs": [
        {
          "indexed": true,
          "internalType": "address",
          "name": "sender",
          "type": "address"
        },
        {
          "indexed": true,
          "internalType": "address",
          "name": "receptor",
          "type": "address"
        }
      ],
      "name": "RamTested",
      "type": "event"
    },
    {
      "inputs": [
        {
          "internalType": "address",
          "name": "_sender",
          "type": "address"
        },
        {
          "internalType": "address",
          "name": "_receptor",
          "type": "address"
        },
        {
          "internalType": "uint256",
          "name": "_index",
          "type": "uint256"
        },
        {
          "internalType": "uint256",
          "name": "_fechaFinal",
          "type": "uint256"
        }
      ],
      "name": "completeRam",
      "outputs": [],
      "stateMutability": "nonpayable",
      "type": "function"
    },
    {
      "inputs": [
        {
          "internalType": "address",
          "name": "_receptor",
          "type": "address"
        },
        {
          "internalType": "uint256",
          "name": "_fechaCreacion",
          "type": "uint256"
        },
        {
          "internalType": "uint256",
          "name": "_ddr",
          "type": "uint256"
        },
        {
          "internalType": "uint256",
          "name": "_precio",
          "type": "uint256"
        }
      ],
      "name": "createRam",
      "outputs": [],
      "stateMutability": "payable",
      "type": "function"
    },
    {
      "inputs": [],
      "name": "getAllTransactions",
      "outputs": [
        {
          "components": [
            {
              "internalType": "address",
              "name": "sender",
              "type": "address"
            },
            {
              "internalType": "address",
              "name": "receptor",
              "type": "address"
            },
            {
              "internalType": "uint256",
              "name": "fechaCreacion",
              "type": "uint256"
            },
            {
              "internalType": "uint256",
              "name": "fechaEnvio",
              "type": "uint256"
            },
            {
              "internalType": "uint256",
              "name": "ddr",
              "type": "uint256"
            },
            {
              "internalType": "uint256",
              "name": "precio",
              "type": "uint256"
            },
            {
              "internalType": "enum Tracking.RamStatus",
              "name": "status",
              "type": "uint8"
            },
            {
              "internalType": "bool",
              "name": "isPaid",
              "type": "bool"
            }
          ],
          "internalType": "struct Tracking.TypeRam[]",
          "name": "",
          "type": "tuple[]"
        }
      ],
      "stateMutability": "view",
      "type": "function"
    },
    {
      "inputs": [
        {
          "internalType": "address",
          "name": "_sender",
          "type": "address"
        },
        {
          "internalType": "uint256",
          "name": "_index",
          "type": "uint256"
        }
      ],
      "name": "getRam",
      "outputs": [
        {
          "internalType": "address",
          "name": "",
          "type": "address"
        },
        {
          "internalType": "address",
          "name": "",
          "type": "address"
        },
        {
          "internalType": "uint256",
          "name": "",
          "type": "uint256"
        },
        {
          "internalType": "uint256",
          "name": "",
          "type": "uint256"
        },
        {
          "internalType": "uint256",
          "name": "",
          "type": "uint256"
        },
        {
          "internalType": "uint256",
          "name": "",
          "type": "uint256"
        },
        {
          "internalType": "enum Tracking.RamStatus",
          "name": "",
          "type": "uint8"
        },
        {
          "internalType": "bool",
          "name": "",
          "type": "bool"
        }
      ],
      "stateMutability": "view",
      "type": "function"
    },
    {
      "inputs": [
        {
          "internalType": "address",
          "name": "_sender",
          "type": "address"
        }
      ],
      "name": "getRamsCount",
      "outputs": [
        {
          "internalType": "uint256",
          "name": "",
          "type": "uint256"
        }
      ],
      "stateMutability": "view",
      "type": "function"
    },
    {
      "inputs": [
        {
          "internalType": "address",
          "name": "_sender",
          "type": "address"
        },
        {
          "internalType": "address",
          "name": "_receptor",
          "type": "address"
        },
        {
          "internalType": "uint256",
          "name": "_index",
          "type": "uint256"
        }
      ],
      "name": "packedRam",
      "outputs": [],
      "stateMutability": "nonpayable",
      "type": "function"
    },
    {
      "inputs": [
        {
          "internalType": "address",
          "name": "_sender",
          "type": "address"
        },
        {
          "internalType": "address",
          "name": "_receptor",
          "type": "address"
        },
        {
          "internalType": "uint256",
          "name": "_index",
          "type": "uint256"
        }
      ],
      "name": "programmedRam",
      "outputs": [],
      "stateMutability": "nonpayable",
      "type": "function"
    },
    {
      "inputs": [],
      "name": "ramCount",
      "outputs": [
        {
          "internalType": "uint256",
          "name": "",
          "type": "uint256"
        }
      ],
      "stateMutability": "view",
      "type": "function"
    },
    {
      "inputs": [
        {
          "internalType": "address",
          "name": "",
          "type": "address"
        },
        {
          "internalType": "uint256",
          "name": "",
          "type": "uint256"
        }
      ],
      "name": "rams",
      "outputs": [
        {
          "internalType": "address",
          "name": "sender",
          "type": "address"
        },
        {
          "internalType": "address",
          "name": "receptor",
          "type": "address"
        },
        {
          "internalType": "uint256",
          "name": "fechaCreacion",
          "type": "uint256"
        },
        {
          "internalType": "uint256",
          "name": "fechaEnvio",
          "type": "uint256"
        },
        {
          "internalType": "uint256",
          "name": "ddr",
          "type": "uint256"
        },
        {
          "internalType": "uint256",
          "name": "precio",
          "type": "uint256"
        },
        {
          "internalType": "enum Tracking.RamStatus",
          "name": "status",
          "type": "uint8"
        },
        {
          "internalType": "bool",
          "name": "isPaid",
          "type": "bool"
        }
      ],
      "stateMutability": "view",
      "type": "function"
    },
    {
      "inputs": [
        {
          "internalType": "address",
          "name": "_sender",
          "type": "address"
        },
        {
          "internalType": "address",
          "name": "_receptor",
          "type": "address"
        },
        {
          "internalType": "uint256",
          "name": "_index",
          "type": "uint256"
        }
      ],
      "name": "startRam",
      "outputs": [],
      "stateMutability": "nonpayable",
      "type": "function"
    },
    {
      "inputs": [
        {
          "internalType": "address",
          "name": "_sender",
          "type": "address"
        },
        {
          "internalType": "address",
          "name": "_receptor",
          "type": "address"
        },
        {
          "internalType": "uint256",
          "name": "_index",
          "type": "uint256"
        }
      ],
      "name": "testRam",
      "outputs": [],
      "stateMutability": "nonpayable",
      "type": "function"
    }
  ],
  "bytecode": "0x608060405234801561001057600080fd5b50600060018190555061219d806100286000396000f3fe60806040526004361061009b5760003560e01c806352d51dc91161006457806352d51dc9146101a5578063755969fc146101e2578063902094431461020b578063a085727d14610227578063a3bcd4a714610252578063a48696751461027b5761009b565b80623c80d8146100a05780630dc7da43146100c957806327506f531461010d578063366576651461013857806340f1136e14610161575b600080fd5b3480156100ac57600080fd5b506100c760048036038101906100c29190611944565b6102a4565b005b3480156100d557600080fd5b506100f060048036038101906100eb9190611997565b6104f1565b604051610104989796959493929190611a87565b60405180910390f35b34801561011957600080fd5b506101226105b0565b60405161012f9190611c93565b60405180910390f35b34801561014457600080fd5b5061015f600480360381019061015a9190611944565b61073a565b005b34801561016d57600080fd5b5061018860048036038101906101839190611997565b610987565b60405161019c989796959493929190611a87565b60405180910390f35b3480156101b157600080fd5b506101cc60048036038101906101c79190611cb5565b610b71565b6040516101d99190611ce2565b60405180910390f35b3480156101ee57600080fd5b5061020960048036038101906102049190611944565b610bbc565b005b61022560048036038101906102209190611cfd565b610e09565b005b34801561023357600080fd5b5061023c611274565b6040516102499190611ce2565b60405180910390f35b34801561025e57600080fd5b5061027960048036038101906102749190611944565b61127a565b005b34801561028757600080fd5b506102a2600480360381019061029d9190611d64565b6114d6565b005b60008060008573ffffffffffffffffffffffffffffffffffffffff1673ffffffffffffffffffffffffffffffffffffffff16815260200190815260200160002082815481106102f6576102f5611dcb565b5b9060005260206000209060070201905060006002838154811061031c5761031b611dcb565b5b906000526020600020906007020190508373ffffffffffffffffffffffffffffffffffffffff168260010160009054906101000a900473ffffffffffffffffffffffffffffffffffffffff1673ffffffffffffffffffffffffffffffffffffffff16146103be576040517f08c379a00000000000000000000000000000000000000000000000000000000081526004016103b590611e57565b60405180910390fd5b600360058111156103d2576103d16119f5565b5b8260060160009054906101000a900460ff1660058111156103f6576103f56119f5565b5b14610436576040517f08c379a000000000000000000000000000000000000000000000000000000000815260040161042d90611ec3565b60405180910390fd5b60038260060160006101000a81548160ff0219169083600581111561045e5761045d6119f5565b5b021790555060038160060160006101000a81548160ff0219169083600581111561048b5761048a6119f5565b5b02179055508373ffffffffffffffffffffffffffffffffffffffff168573ffffffffffffffffffffffffffffffffffffffff167f3e7137c85c5fe135bf524f3d40b7b7452abf51a9fed9461bf774f113502708a760405160405180910390a35050505050565b6000602052816000526040600020818154811061050d57600080fd5b9060005260206000209060070201600091509150508060000160009054906101000a900473ffffffffffffffffffffffffffffffffffffffff16908060010160009054906101000a900473ffffffffffffffffffffffffffffffffffffffff16908060020154908060030154908060040154908060050154908060060160009054906101000a900460ff16908060060160019054906101000a900460ff16905088565b60606002805480602002602001604051908101604052809291908181526020016000905b828210156107315783829060005260206000209060070201604051806101000160405290816000820160009054906101000a900473ffffffffffffffffffffffffffffffffffffffff1673ffffffffffffffffffffffffffffffffffffffff1673ffffffffffffffffffffffffffffffffffffffff1681526020016001820160009054906101000a900473ffffffffffffffffffffffffffffffffffffffff1673ffffffffffffffffffffffffffffffffffffffff1673ffffffffffffffffffffffffffffffffffffffff168152602001600282015481526020016003820154815260200160048201548152602001600582015481526020016006820160009054906101000a900460ff1660058111156106f1576106f06119f5565b5b6005811115610703576107026119f5565b5b81526020016006820160019054906101000a900460ff161515151581525050815260200190600101906105d4565b50505050905090565b60008060008573ffffffffffffffffffffffffffffffffffffffff1673ffffffffffffffffffffffffffffffffffffffff168152602001908152602001600020828154811061078c5761078b611dcb565b5b906000526020600020906007020190506000600283815481106107b2576107b1611dcb565b5b906000526020600020906007020190508373ffffffffffffffffffffffffffffffffffffffff168260010160009054906101000a900473ffffffffffffffffffffffffffffffffffffffff1673ffffffffffffffffffffffffffffffffffffffff1614610854576040517f08c379a000000000000000000000000000000000000000000000000000000000815260040161084b90611e57565b60405180910390fd5b60026005811115610868576108676119f5565b5b8260060160009054906101000a900460ff16600581111561088c5761088b6119f5565b5b146108cc576040517f08c379a00000000000000000000000000000000000000000000000000000000081526004016108c390611ec3565b60405180910390fd5b60028260060160006101000a81548160ff021916908360058111156108f4576108f36119f5565b5b021790555060028160060160006101000a81548160ff02191690836005811115610921576109206119f5565b5b02179055508373ffffffffffffffffffffffffffffffffffffffff168573ffffffffffffffffffffffffffffffffffffffff167fde010046fdf21bf101fd8f1240014acb18bdc85e35e00dbcfcec3f20e1a6d9c060405160405180910390a35050505050565b60008060008060008060008060008060008c73ffffffffffffffffffffffffffffffffffffffff1673ffffffffffffffffffffffffffffffffffffffff1681526020019081526020016000208a815481106109e5576109e4611dcb565b5b9060005260206000209060070201604051806101000160405290816000820160009054906101000a900473ffffffffffffffffffffffffffffffffffffffff1673ffffffffffffffffffffffffffffffffffffffff1673ffffffffffffffffffffffffffffffffffffffff1681526020016001820160009054906101000a900473ffffffffffffffffffffffffffffffffffffffff1673ffffffffffffffffffffffffffffffffffffffff1673ffffffffffffffffffffffffffffffffffffffff168152602001600282015481526020016003820154815260200160048201548152602001600582015481526020016006820160009054906101000a900460ff166005811115610af857610af76119f5565b5b6005811115610b0a57610b096119f5565b5b81526020016006820160019054906101000a900460ff1615151515815250509050806000015181602001518260400151836060015184608001518560a001518660c001518760e0015198509850985098509850985098509850509295985092959890939650565b60008060008373ffffffffffffffffffffffffffffffffffffffff1673ffffffffffffffffffffffffffffffffffffffff168152602001908152602001600020805490509050919050565b60008060008573ffffffffffffffffffffffffffffffffffffffff1673ffffffffffffffffffffffffffffffffffffffff1681526020019081526020016000208281548110610c0e57610c0d611dcb565b5b90600052602060002090600702019050600060028381548110610c3457610c33611dcb565b5b906000526020600020906007020190508373ffffffffffffffffffffffffffffffffffffffff168260010160009054906101000a900473ffffffffffffffffffffffffffffffffffffffff1673ffffffffffffffffffffffffffffffffffffffff1614610cd6576040517f08c379a0000000000000000000000000000000000000000000000000000000008152600401610ccd90611e57565b60405180910390fd5b60016005811115610cea57610ce96119f5565b5b8260060160009054906101000a900460ff166005811115610d0e57610d0d6119f5565b5b14610d4e576040517f08c379a0000000000000000000000000000000000000000000000000000000008152600401610d4590611ec3565b60405180910390fd5b60018260060160006101000a81548160ff02191690836005811115610d7657610d756119f5565b5b021790555060018160060160006101000a81548160ff02191690836005811115610da357610da26119f5565b5b02179055508373ffffffffffffffffffffffffffffffffffffffff168573ffffffffffffffffffffffffffffffffffffffff167f257dffdd1d28dcf0ee93c0aecc2b9f444e929722eb051082351d932767aea8e760405160405180910390a35050505050565b803414610e4b576040517f08c379a0000000000000000000000000000000000000000000000000000000008152600401610e4290611f55565b60405180910390fd5b60006040518061010001604052803373ffffffffffffffffffffffffffffffffffffffff1681526020018673ffffffffffffffffffffffffffffffffffffffff1681526020018581526020016000815260200184815260200183815260200160006005811115610ebe57610ebd6119f5565b5b81526020016000151581525090506000803373ffffffffffffffffffffffffffffffffffffffff1673ffffffffffffffffffffffffffffffffffffffff16815260200190815260200160002081908060018154018082558091505060019003906000526020600020906007020160009091909190915060008201518160000160006101000a81548173ffffffffffffffffffffffffffffffffffffffff021916908373ffffffffffffffffffffffffffffffffffffffff16021790555060208201518160010160006101000a81548173ffffffffffffffffffffffffffffffffffffffff021916908373ffffffffffffffffffffffffffffffffffffffff16021790555060408201518160020155606082015181600301556080820151816004015560a0820151816005015560c08201518160060160006101000a81548160ff02191690836005811115611015576110146119f5565b5b021790555060e08201518160060160016101000a81548160ff02191690831515021790555050506001600081548092919061104f90611fa4565b919050555060026040518061010001604052803373ffffffffffffffffffffffffffffffffffffffff1681526020018773ffffffffffffffffffffffffffffffffffffffff16815260200186815260200160008152602001858152602001848152602001600060058111156110c7576110c66119f5565b5b815260200160001515815250908060018154018082558091505060019003906000526020600020906007020160009091909190915060008201518160000160006101000a81548173ffffffffffffffffffffffffffffffffffffffff021916908373ffffffffffffffffffffffffffffffffffffffff16021790555060208201518160010160006101000a81548173ffffffffffffffffffffffffffffffffffffffff021916908373ffffffffffffffffffffffffffffffffffffffff16021790555060408201518160020155606082015181600301556080820151816004015560a0820151816005015560c08201518160060160006101000a81548160ff021916908360058111156111dd576111dc6119f5565b5b021790555060e08201518160060160016101000a81548160ff02191690831515021790555050508473ffffffffffffffffffffffffffffffffffffffff163373ffffffffffffffffffffffffffffffffffffffff167f783b37e6ead8c08fdd9291e23f71e1f28cd6141daa30ce5ddb9af2f72d338f6986868660405161126593929190611fec565b60405180910390a35050505050565b60015481565b60008060008573ffffffffffffffffffffffffffffffffffffffff1673ffffffffffffffffffffffffffffffffffffffff16815260200190815260200160002082815481106112cc576112cb611dcb565b5b906000526020600020906007020190506000600283815481106112f2576112f1611dcb565b5b906000526020600020906007020190508373ffffffffffffffffffffffffffffffffffffffff168260010160009054906101000a900473ffffffffffffffffffffffffffffffffffffffff1673ffffffffffffffffffffffffffffffffffffffff1614611394576040517f08c379a000000000000000000000000000000000000000000000000000000000815260040161138b90611e57565b60405180910390fd5b600060058111156113a8576113a76119f5565b5b8260060160009054906101000a900460ff1660058111156113cc576113cb6119f5565b5b1461140c576040517f08c379a00000000000000000000000000000000000000000000000000000000081526004016114039061206f565b60405180910390fd5b60048260060160006101000a81548160ff02191690836005811115611434576114336119f5565b5b021790555060048160060160006101000a81548160ff02191690836005811115611461576114606119f5565b5b02179055508373ffffffffffffffffffffffffffffffffffffffff168573ffffffffffffffffffffffffffffffffffffffff167fe809f8b1c92785cd28fab6f2761ca16f910fc009c5a3e9b2dfe87ecae1273a7584600201546040516114c79190611ce2565b60405180910390a35050505050565b60008060008673ffffffffffffffffffffffffffffffffffffffff1673ffffffffffffffffffffffffffffffffffffffff168152602001908152602001600020838154811061152857611527611dcb565b5b9060005260206000209060070201905060006002848154811061154e5761154d611dcb565b5b906000526020600020906007020190508473ffffffffffffffffffffffffffffffffffffffff168260010160009054906101000a900473ffffffffffffffffffffffffffffffffffffffff1673ffffffffffffffffffffffffffffffffffffffff16146115f0576040517f08c379a00000000000000000000000000000000000000000000000000000000081526004016115e790611e57565b60405180910390fd5b60046005811115611604576116036119f5565b5b8260060160009054906101000a900460ff166005811115611628576116276119f5565b5b14611668576040517f08c379a000000000000000000000000000000000000000000000000000000000815260040161165f906120db565b60405180910390fd5b8160060160019054906101000a900460ff16156116ba576040517f08c379a00000000000000000000000000000000000000000000000000000000081526004016116b190612147565b60405180910390fd5b60058260060160006101000a81548160ff021916908360058111156116e2576116e16119f5565b5b021790555060058160060160006101000a81548160ff0219169083600581111561170f5761170e6119f5565b5b02179055504281600301819055504282600301819055506000826005015490508260000160009054906101000a900473ffffffffffffffffffffffffffffffffffffffff1673ffffffffffffffffffffffffffffffffffffffff166108fc829081150290604051600060405180830381858888f19350505050158015611799573d6000803e3d6000fd5b5060018360060160016101000a81548160ff02191690831515021790555060018260060160016101000a81548160ff0219169083151502179055508573ffffffffffffffffffffffffffffffffffffffff168773ffffffffffffffffffffffffffffffffffffffff167fd1515ee36975d6573d6b77d59761d53ec3158e6cf0749bd1dc6f4b11c7e7476e85600301546040516118359190611ce2565b60405180910390a38573ffffffffffffffffffffffffffffffffffffffff168773ffffffffffffffffffffffffffffffffffffffff167f80b60ea5380b85d798887f9b6960ec6bed9cb13081a545402ef3ccf8a984baa58360405161189a9190611ce2565b60405180910390a350505050505050565b600080fd5b600073ffffffffffffffffffffffffffffffffffffffff82169050919050565b60006118db826118b0565b9050919050565b6118eb816118d0565b81146118f657600080fd5b50565b600081359050611908816118e2565b92915050565b6000819050919050565b6119218161190e565b811461192c57600080fd5b50565b60008135905061193e81611918565b92915050565b60008060006060848603121561195d5761195c6118ab565b5b600061196b868287016118f9565b935050602061197c868287016118f9565b925050604061198d8682870161192f565b9150509250925092565b600080604083850312156119ae576119ad6118ab565b5b60006119bc858286016118f9565b92505060206119cd8582860161192f565b9150509250929050565b6119e0816118d0565b82525050565b6119ef8161190e565b82525050565b7f4e487b7100000000000000000000000000000000000000000000000000000000600052602160045260246000fd5b60068110611a3557611a346119f5565b5b50565b6000819050611a4682611a24565b919050565b6000611a5682611a38565b9050919050565b611a6681611a4b565b82525050565b60008115159050919050565b611a8181611a6c565b82525050565b600061010082019050611a9d600083018b6119d7565b611aaa602083018a6119d7565b611ab760408301896119e6565b611ac460608301886119e6565b611ad160808301876119e6565b611ade60a08301866119e6565b611aeb60c0830185611a5d565b611af860e0830184611a78565b9998505050505050505050565b600081519050919050565b600082825260208201905092915050565b6000819050602082019050919050565b611b3a816118d0565b82525050565b611b498161190e565b82525050565b611b5881611a4b565b82525050565b611b6781611a6c565b82525050565b61010082016000820151611b846000850182611b31565b506020820151611b976020850182611b31565b506040820151611baa6040850182611b40565b506060820151611bbd6060850182611b40565b506080820151611bd06080850182611b40565b5060a0820151611be360a0850182611b40565b5060c0820151611bf660c0850182611b4f565b5060e0820151611c0960e0850182611b5e565b50505050565b6000611c1b8383611b6d565b6101008301905092915050565b6000602082019050919050565b6000611c4082611b05565b611c4a8185611b10565b9350611c5583611b21565b8060005b83811015611c86578151611c6d8882611c0f565b9750611c7883611c28565b925050600181019050611c59565b5085935050505092915050565b60006020820190508181036000830152611cad8184611c35565b905092915050565b600060208284031215611ccb57611cca6118ab565b5b6000611cd9848285016118f9565b91505092915050565b6000602082019050611cf760008301846119e6565b92915050565b60008060008060808587031215611d1757611d166118ab565b5b6000611d25878288016118f9565b9450506020611d368782880161192f565b9350506040611d478782880161192f565b9250506060611d588782880161192f565b91505092959194509250565b60008060008060808587031215611d7e57611d7d6118ab565b5b6000611d8c878288016118f9565b9450506020611d9d878288016118f9565b9350506040611dae8782880161192f565b9250506060611dbf8782880161192f565b91505092959194509250565b7f4e487b7100000000000000000000000000000000000000000000000000000000600052603260045260246000fd5b600082825260208201905092915050565b7f5265636570746f7220696e6578697374656e74652e0000000000000000000000600082015250565b6000611e41601583611dfa565b9150611e4c82611e0b565b602082019050919050565b60006020820190508181036000830152611e7081611e34565b9050919050565b7f52414d2050524f4752414d4144412e0000000000000000000000000000000000600082015250565b6000611ead600f83611dfa565b9150611eb882611e77565b602082019050919050565b60006020820190508181036000830152611edc81611ea0565b9050919050565b7f456c206d6f6e746f2064656c207061676f206465626520636f696e636964697260008201527f20636f6e20656c2070726563696f2e0000000000000000000000000000000000602082015250565b6000611f3f602f83611dfa565b9150611f4a82611ee3565b604082019050919050565b60006020820190508181036000830152611f6e81611f32565b9050919050565b7f4e487b7100000000000000000000000000000000000000000000000000000000600052601160045260246000fd5b6000611faf8261190e565b91507fffffffffffffffffffffffffffffffffffffffffffffffffffffffffffffffff8203611fe157611fe0611f75565b5b600182019050919050565b600060608201905061200160008301866119e6565b61200e60208301856119e6565b61201b60408301846119e6565b949350505050565b7f52414d20656e76696164612e0000000000000000000000000000000000000000600082015250565b6000612059600c83611dfa565b915061206482612023565b602082019050919050565b600060208201905081810360008301526120888161204c565b9050919050565b7f72616d206e6f7420696e207472616e7369742e00000000000000000000000000600082015250565b60006120c5601383611dfa565b91506120d08261208f565b602082019050919050565b600060208201905081810360008301526120f4816120b8565b9050919050565b7f52616d2070726f6365736f20636f6d706c657461646f2e000000000000000000600082015250565b6000612131601783611dfa565b915061213c826120fb565b602082019050919050565b6000602082019050818103600083015261216081612124565b905091905056fea2646970667358221220001200a77f20ac35bdaeca0c490fd6526ad7d616ae9277260c6a201fe16cef3764736f6c63430008120033",
  "linkReferences": {},
  "deployedLinkReferences": {}
}