{
  "_format": "hh-sol-artifact-1",
  "contractName": "Tracking",
  "sourceName": "contracts/Tracking.sol",
  "abi": [
    {
      "inputs": [],
      "stateMutability": "nonpayable",
      "type": "constructor"
    },
    {
      "anonymous": false,
      "inputs": [
        {
          "indexed": true,
          "internalType": "address",
          "name": "sender",
          "type": "address"
        },
        {
          "indexed": true,
          "internalType": "address",
          "name": "receptor",
          "type": "address"
        },
        {
          "indexed": false,
          "internalType": "uint256",
          "name": "fechaCreacion",
          "type": "uint256"
        },
        {
          "indexed": false,
          "internalType": "uint256",
          "name": "ddr",
          "type": "uint256"
        },
        {
          "indexed": false,
          "internalType": "uint256",
          "name": "precio",
          "type": "uint256"
        }
      ],
      "name": "RamAssembled",
      "type": "event"
    },
    {
      "anonymous": false,
      "inputs": [
        {
          "indexed": true,
          "internalType": "address",
          "name": "sender",
          "type": "address"
        },
        {
          "indexed": true,
          "internalType": "address",
          "name": "receptor",
          "type": "address"
        },
        {
          "indexed": false,
          "internalType": "uint256",
          "name": "fechaEnvio",
          "type": "uint256"
        }
      ],
      "name": "RamDelivered",
      "type": "event"
    },
    {
      "anonymous": false,
      "inputs": [
        {
          "indexed": true,
          "internalType": "address",
          "name": "sender",
          "type": "address"
        },
        {
          "indexed": true,
          "internalType": "address",
          "name": "receptor",
          "type": "address"
        },
        {
          "indexed": false,
          "internalType": "uint256",
          "name": "fechaEnvio",
          "type": "uint256"
        }
      ],
      "name": "RamEnviada",
      "type": "event"
    },
    {
      "anonymous": false,
      "inputs": [
        {
          "indexed": true,
          "internalType": "address",
          "name": "sender",
          "type": "address"
        },
        {
          "indexed": true,
          "internalType": "address",
          "name": "receptor",
          "type": "address"
        },
        {
          "indexed": false,
          "internalType": "uint256",
          "name": "fechaEmpaque",
          "type": "uint256"
        }
      ],
      "name": "RamPacked",
      "type": "event"
    },
    {
      "anonymous": false,
      "inputs": [
        {
          "indexed": true,
          "internalType": "address",
          "name": "sender",
          "type": "address"
        },
        {
          "indexed": true,
          "internalType": "address",
          "name": "receptor",
          "type": "address"
        },
        {
          "indexed": false,
          "internalType": "uint256",
          "name": "amount",
          "type": "uint256"
        },
        {
          "indexed": false,
          "internalType": "uint256",
          "name": "fechaFinal",
          "type": "uint256"
        }
      ],
      "name": "RamPaid",
      "type": "event"
    },
    {
      "anonymous": false,
      "inputs": [
        {
          "indexed": true,
          "internalType": "address",
          "name": "sender",
          "type": "address"
        },
        {
          "indexed": true,
          "internalType": "address",
          "name": "receptor",
          "type": "address"
        },
        {
          "indexed": false,
          "internalType": "uint256",
          "name": "fechaProgramado",
          "type": "uint256"
        }
      ],
      "name": "RamProgrammed",
      "type": "event"
    },
    {
      "anonymous": false,
      "inputs": [
        {
          "indexed": true,
          "internalType": "address",
          "name": "sender",
          "type": "address"
        },
        {
          "indexed": true,
          "internalType": "address",
          "name": "receptor",
          "type": "address"
        },
        {
          "indexed": false,
          "internalType": "uint256",
          "name": "fechaPrueba",
          "type": "uint256"
        }
      ],
      "name": "RamTested",
      "type": "event"
    },
    {
      "inputs": [
        {
          "internalType": "address",
          "name": "_sender",
          "type": "address"
        },
        {
          "internalType": "address",
          "name": "_receptor",
          "type": "address"
        },
        {
          "internalType": "uint256",
          "name": "_index",
          "type": "uint256"
        },
        {
          "internalType": "uint256",
          "name": "_fechaFinal",
          "type": "uint256"
        }
      ],
      "name": "completeRam",
      "outputs": [],
      "stateMutability": "nonpayable",
      "type": "function"
    },
    {
      "inputs": [
        {
          "internalType": "address",
          "name": "_receptor",
          "type": "address"
        },
        {
          "internalType": "uint256",
          "name": "_fechaCreacion",
          "type": "uint256"
        },
        {
          "internalType": "uint256",
          "name": "_ddr",
          "type": "uint256"
        },
        {
          "internalType": "uint256",
          "name": "_precio",
          "type": "uint256"
        }
      ],
      "name": "createRam",
      "outputs": [],
      "stateMutability": "payable",
      "type": "function"
    },
    {
      "inputs": [],
      "name": "getAllTransactions",
      "outputs": [
        {
          "components": [
            {
              "internalType": "address",
              "name": "sender",
              "type": "address"
            },
            {
              "internalType": "address",
              "name": "receptor",
              "type": "address"
            },
            {
              "internalType": "uint256",
              "name": "fechaCreacion",
              "type": "uint256"
            },
            {
              "internalType": "uint256",
              "name": "fechaEnvio",
              "type": "uint256"
            },
            {
              "internalType": "uint256",
              "name": "ddr",
              "type": "uint256"
            },
            {
              "internalType": "uint256",
              "name": "precio",
              "type": "uint256"
            },
            {
              "internalType": "enum Tracking.RamStatus",
              "name": "status",
              "type": "uint8"
            },
            {
              "internalType": "bool",
              "name": "isPaid",
              "type": "bool"
            },
            {
              "internalType": "uint256",
              "name": "fechaProgramado",
              "type": "uint256"
            },
            {
              "internalType": "uint256",
              "name": "fechaPrueba",
              "type": "uint256"
            },
            {
              "internalType": "uint256",
              "name": "fechaEmpaque",
              "type": "uint256"
            },
            {
              "internalType": "uint256",
              "name": "fechaFinal",
              "type": "uint256"
            }
          ],
          "internalType": "struct Tracking.TypeRam[]",
          "name": "",
          "type": "tuple[]"
        }
      ],
      "stateMutability": "view",
      "type": "function"
    },
    {
      "inputs": [
        {
          "internalType": "address",
          "name": "_sender",
          "type": "address"
        },
        {
          "internalType": "uint256",
          "name": "_index",
          "type": "uint256"
        }
      ],
      "name": "getRam",
      "outputs": [
        {
          "internalType": "address",
          "name": "",
          "type": "address"
        },
        {
          "internalType": "address",
          "name": "",
          "type": "address"
        },
        {
          "internalType": "uint256",
          "name": "",
          "type": "uint256"
        },
        {
          "internalType": "uint256",
          "name": "",
          "type": "uint256"
        },
        {
          "internalType": "uint256",
          "name": "",
          "type": "uint256"
        },
        {
          "internalType": "uint256",
          "name": "",
          "type": "uint256"
        },
        {
          "internalType": "enum Tracking.RamStatus",
          "name": "",
          "type": "uint8"
        },
        {
          "internalType": "bool",
          "name": "",
          "type": "bool"
        }
      ],
      "stateMutability": "view",
      "type": "function"
    },
    {
      "inputs": [
        {
          "internalType": "address",
          "name": "_sender",
          "type": "address"
        }
      ],
      "name": "getRamsCount",
      "outputs": [
        {
          "internalType": "uint256",
          "name": "",
          "type": "uint256"
        }
      ],
      "stateMutability": "view",
      "type": "function"
    },
    {
      "inputs": [
        {
          "internalType": "address",
          "name": "_sender",
          "type": "address"
        },
        {
          "internalType": "address",
          "name": "_receptor",
          "type": "address"
        },
        {
          "internalType": "uint256",
          "name": "_fechaEmpaque",
          "type": "uint256"
        },
        {
          "internalType": "uint256",
          "name": "_index",
          "type": "uint256"
        }
      ],
      "name": "packedRam",
      "outputs": [],
      "stateMutability": "nonpayable",
      "type": "function"
    },
    {
      "inputs": [
        {
          "internalType": "address",
          "name": "_sender",
          "type": "address"
        },
        {
          "internalType": "address",
          "name": "_receptor",
          "type": "address"
        },
        {
          "internalType": "uint256",
          "name": "_fechaProgramado",
          "type": "uint256"
        },
        {
          "internalType": "uint256",
          "name": "_index",
          "type": "uint256"
        }
      ],
      "name": "programmedRam",
      "outputs": [],
      "stateMutability": "nonpayable",
      "type": "function"
    },
    {
      "inputs": [],
      "name": "ramCount",
      "outputs": [
        {
          "internalType": "uint256",
          "name": "",
          "type": "uint256"
        }
      ],
      "stateMutability": "view",
      "type": "function"
    },
    {
      "inputs": [
        {
          "internalType": "address",
          "name": "",
          "type": "address"
        },
        {
          "internalType": "uint256",
          "name": "",
          "type": "uint256"
        }
      ],
      "name": "rams",
      "outputs": [
        {
          "internalType": "address",
          "name": "sender",
          "type": "address"
        },
        {
          "internalType": "address",
          "name": "receptor",
          "type": "address"
        },
        {
          "internalType": "uint256",
          "name": "fechaCreacion",
          "type": "uint256"
        },
        {
          "internalType": "uint256",
          "name": "fechaEnvio",
          "type": "uint256"
        },
        {
          "internalType": "uint256",
          "name": "ddr",
          "type": "uint256"
        },
        {
          "internalType": "uint256",
          "name": "precio",
          "type": "uint256"
        },
        {
          "internalType": "enum Tracking.RamStatus",
          "name": "status",
          "type": "uint8"
        },
        {
          "internalType": "bool",
          "name": "isPaid",
          "type": "bool"
        },
        {
          "internalType": "uint256",
          "name": "fechaProgramado",
          "type": "uint256"
        },
        {
          "internalType": "uint256",
          "name": "fechaPrueba",
          "type": "uint256"
        },
        {
          "internalType": "uint256",
          "name": "fechaEmpaque",
          "type": "uint256"
        },
        {
          "internalType": "uint256",
          "name": "fechaFinal",
          "type": "uint256"
        }
      ],
      "stateMutability": "view",
      "type": "function"
    },
    {
      "inputs": [
        {
          "internalType": "address",
          "name": "_sender",
          "type": "address"
        },
        {
          "internalType": "address",
          "name": "_receptor",
          "type": "address"
        },
        {
          "internalType": "uint256",
          "name": "_index",
          "type": "uint256"
        }
      ],
      "name": "startRam",
      "outputs": [],
      "stateMutability": "nonpayable",
      "type": "function"
    },
    {
      "inputs": [
        {
          "internalType": "address",
          "name": "_sender",
          "type": "address"
        },
        {
          "internalType": "address",
          "name": "_receptor",
          "type": "address"
        },
        {
          "internalType": "uint256",
          "name": "_fechaPrueba",
          "type": "uint256"
        },
        {
          "internalType": "uint256",
          "name": "_index",
          "type": "uint256"
        }
      ],
      "name": "testRam",
      "outputs": [],
      "stateMutability": "nonpayable",
      "type": "function"
    }
  ],
  "bytecode": "0x608060405234801561001057600080fd5b50600060018190555061242d806100286000396000f3fe60806040526004361061009c5760003560e01c806352d51dc91161006457806352d51dc9146101aa578063845ab578146101e75780639020944314610210578063a085727d1461022c578063a3bcd4a714610257578063a4869675146102805761009c565b80630dc7da43146100a157806310cd6a84146100e957806327506f531461011257806340f1136e1461013d578063426ee6b114610181575b600080fd5b3480156100ad57600080fd5b506100c860048036038101906100c39190611a9d565b6102a9565b6040516100e09c9b9a99989796959493929190611b8d565b60405180910390f35b3480156100f557600080fd5b50610110600480360381019061010b9190611c47565b610380565b005b34801561011e57600080fd5b506101276105eb565b6040516101349190611e90565b60405180910390f35b34801561014957600080fd5b50610164600480360381019061015f9190611a9d565b61079d565b604051610178989796959493929190611eb2565b60405180910390f35b34801561018d57600080fd5b506101a860048036038101906101a39190611c47565b6109af565b005b3480156101b657600080fd5b506101d160048036038101906101cc9190611f30565b610c1a565b6040516101de9190611f5d565b60405180910390f35b3480156101f357600080fd5b5061020e60048036038101906102099190611c47565b610c65565b005b61022a60048036038101906102259190611f78565b610ed0565b005b34801561023857600080fd5b506102416113cb565b60405161024e9190611f5d565b60405180910390f35b34801561026357600080fd5b5061027e60048036038101906102799190611fdf565b6113d1565b005b34801561028c57600080fd5b506102a760048036038101906102a29190611c47565b61162d565b005b600060205281600052604060002081815481106102c557600080fd5b90600052602060002090600b0201600091509150508060000160009054906101000a900473ffffffffffffffffffffffffffffffffffffffff16908060010160009054906101000a900473ffffffffffffffffffffffffffffffffffffffff16908060020154908060030154908060040154908060050154908060060160009054906101000a900460ff16908060060160019054906101000a900460ff169080600701549080600801549080600901549080600a015490508c565b60008060008673ffffffffffffffffffffffffffffffffffffffff1673ffffffffffffffffffffffffffffffffffffffff16815260200190815260200160002082815481106103d2576103d1612032565b5b90600052602060002090600b020190506000600283815481106103f8576103f7612032565b5b90600052602060002090600b020190508473ffffffffffffffffffffffffffffffffffffffff168260010160009054906101000a900473ffffffffffffffffffffffffffffffffffffffff1673ffffffffffffffffffffffffffffffffffffffff161461049a576040517f08c379a0000000000000000000000000000000000000000000000000000000008152600401610491906120be565b60405180910390fd5b600360058111156104ae576104ad611afb565b5b8260060160009054906101000a900460ff1660058111156104d2576104d1611afb565b5b14610512576040517f08c379a00000000000000000000000000000000000000000000000000000000081526004016105099061212a565b60405180910390fd5b60038260060160006101000a81548160ff0219169083600581111561053a57610539611afb565b5b021790555060038160060160006101000a81548160ff0219169083600581111561056757610566611afb565b5b02179055504281600901819055504282600901819055508473ffffffffffffffffffffffffffffffffffffffff168673ffffffffffffffffffffffffffffffffffffffff167f694c4b4450dfa3e6a6709002ee6a7b82cfc730e05059cd05216cf461dd1aee3a866040516105db9190611f5d565b60405180910390a3505050505050565b60606002805480602002602001604051908101604052809291908181526020016000905b8282101561079457838290600052602060002090600b0201604051806101800160405290816000820160009054906101000a900473ffffffffffffffffffffffffffffffffffffffff1673ffffffffffffffffffffffffffffffffffffffff1673ffffffffffffffffffffffffffffffffffffffff1681526020016001820160009054906101000a900473ffffffffffffffffffffffffffffffffffffffff1673ffffffffffffffffffffffffffffffffffffffff1673ffffffffffffffffffffffffffffffffffffffff168152602001600282015481526020016003820154815260200160048201548152602001600582015481526020016006820160009054906101000a900460ff16600581111561072c5761072b611afb565b5b600581111561073e5761073d611afb565b5b81526020016006820160019054906101000a900460ff16151515158152602001600782015481526020016008820154815260200160098201548152602001600a820154815250508152602001906001019061060f565b50505050905090565b60008060008060008060008060008060008c73ffffffffffffffffffffffffffffffffffffffff1673ffffffffffffffffffffffffffffffffffffffff1681526020019081526020016000208a815481106107fb576107fa612032565b5b90600052602060002090600b0201604051806101800160405290816000820160009054906101000a900473ffffffffffffffffffffffffffffffffffffffff1673ffffffffffffffffffffffffffffffffffffffff1673ffffffffffffffffffffffffffffffffffffffff1681526020016001820160009054906101000a900473ffffffffffffffffffffffffffffffffffffffff1673ffffffffffffffffffffffffffffffffffffffff1673ffffffffffffffffffffffffffffffffffffffff168152602001600282015481526020016003820154815260200160048201548152602001600582015481526020016006820160009054906101000a900460ff16600581111561090e5761090d611afb565b5b60058111156109205761091f611afb565b5b81526020016006820160019054906101000a900460ff16151515158152602001600782015481526020016008820154815260200160098201548152602001600a820154815250509050806000015181602001518260400151836060015184608001518560a001518660c001518760e0015198509850985098509850985098509850509295985092959890939650565b60008060008673ffffffffffffffffffffffffffffffffffffffff1673ffffffffffffffffffffffffffffffffffffffff1681526020019081526020016000208281548110610a0157610a00612032565b5b90600052602060002090600b02019050600060028381548110610a2757610a26612032565b5b90600052602060002090600b020190508473ffffffffffffffffffffffffffffffffffffffff168260010160009054906101000a900473ffffffffffffffffffffffffffffffffffffffff1673ffffffffffffffffffffffffffffffffffffffff1614610ac9576040517f08c379a0000000000000000000000000000000000000000000000000000000008152600401610ac0906120be565b60405180910390fd5b60026005811115610add57610adc611afb565b5b8260060160009054906101000a900460ff166005811115610b0157610b00611afb565b5b14610b41576040517f08c379a0000000000000000000000000000000000000000000000000000000008152600401610b389061212a565b60405180910390fd5b60028260060160006101000a81548160ff02191690836005811115610b6957610b68611afb565b5b021790555060028160060160006101000a81548160ff02191690836005811115610b9657610b95611afb565b5b02179055504281600801819055504282600801819055508473ffffffffffffffffffffffffffffffffffffffff168673ffffffffffffffffffffffffffffffffffffffff167f8e783c8f97418f17361b52c7ca96fea7070b8f0a42bf55df3886aa58a2c719ca86604051610c0a9190611f5d565b60405180910390a3505050505050565b60008060008373ffffffffffffffffffffffffffffffffffffffff1673ffffffffffffffffffffffffffffffffffffffff168152602001908152602001600020805490509050919050565b60008060008673ffffffffffffffffffffffffffffffffffffffff1673ffffffffffffffffffffffffffffffffffffffff1681526020019081526020016000208281548110610cb757610cb6612032565b5b90600052602060002090600b02019050600060028381548110610cdd57610cdc612032565b5b90600052602060002090600b020190508473ffffffffffffffffffffffffffffffffffffffff168260010160009054906101000a900473ffffffffffffffffffffffffffffffffffffffff1673ffffffffffffffffffffffffffffffffffffffff1614610d7f576040517f08c379a0000000000000000000000000000000000000000000000000000000008152600401610d76906120be565b60405180910390fd5b60016005811115610d9357610d92611afb565b5b8260060160009054906101000a900460ff166005811115610db757610db6611afb565b5b14610df7576040517f08c379a0000000000000000000000000000000000000000000000000000000008152600401610dee9061212a565b60405180910390fd5b60018260060160006101000a81548160ff02191690836005811115610e1f57610e1e611afb565b5b021790555060018160060160006101000a81548160ff02191690836005811115610e4c57610e4b611afb565b5b02179055504281600701819055504282600701819055508473ffffffffffffffffffffffffffffffffffffffff168673ffffffffffffffffffffffffffffffffffffffff167f4bfd63225bb0316f3516505016f89c94a9d472b7637da9c99bc221042983e83a86604051610ec09190611f5d565b60405180910390a3505050505050565b803414610f12576040517f08c379a0000000000000000000000000000000000000000000000000000000008152600401610f09906121bc565b60405180910390fd5b60006040518061018001604052803373ffffffffffffffffffffffffffffffffffffffff1681526020018673ffffffffffffffffffffffffffffffffffffffff1681526020018581526020016000815260200184815260200183815260200160006005811115610f8557610f84611afb565b5b8152602001600015158152602001600081526020016000815260200160008152602001600081525090506000803373ffffffffffffffffffffffffffffffffffffffff1673ffffffffffffffffffffffffffffffffffffffff1681526020019081526020016000208190806001815401808255809150506001900390600052602060002090600b020160009091909190915060008201518160000160006101000a81548173ffffffffffffffffffffffffffffffffffffffff021916908373ffffffffffffffffffffffffffffffffffffffff16021790555060208201518160010160006101000a81548173ffffffffffffffffffffffffffffffffffffffff021916908373ffffffffffffffffffffffffffffffffffffffff16021790555060408201518160020155606082015181600301556080820151816004015560a0820151816005015560c08201518160060160006101000a81548160ff021916908360058111156110f8576110f7611afb565b5b021790555060e08201518160060160016101000a81548160ff02191690831515021790555061010082015181600701556101208201518160080155610140820151816009015561016082015181600a015550506001600081548092919061115e9061220b565b919050555060026040518061018001604052803373ffffffffffffffffffffffffffffffffffffffff1681526020018773ffffffffffffffffffffffffffffffffffffffff16815260200186815260200160008152602001858152602001848152602001600060058111156111d6576111d5611afb565b5b8152602001600015158152602001600081526020016000815260200160008152602001600081525090806001815401808255809150506001900390600052602060002090600b020160009091909190915060008201518160000160006101000a81548173ffffffffffffffffffffffffffffffffffffffff021916908373ffffffffffffffffffffffffffffffffffffffff16021790555060208201518160010160006101000a81548173ffffffffffffffffffffffffffffffffffffffff021916908373ffffffffffffffffffffffffffffffffffffffff16021790555060408201518160020155606082015181600301556080820151816004015560a0820151816005015560c08201518160060160006101000a81548160ff0219169083600581111561130857611307611afb565b5b021790555060e08201518160060160016101000a81548160ff02191690831515021790555061010082015181600701556101208201518160080155610140820151816009015561016082015181600a015550508473ffffffffffffffffffffffffffffffffffffffff163373ffffffffffffffffffffffffffffffffffffffff167f783b37e6ead8c08fdd9291e23f71e1f28cd6141daa30ce5ddb9af2f72d338f698686866040516113bc93929190612253565b60405180910390a35050505050565b60015481565b60008060008573ffffffffffffffffffffffffffffffffffffffff1673ffffffffffffffffffffffffffffffffffffffff168152602001908152602001600020828154811061142357611422612032565b5b90600052602060002090600b0201905060006002838154811061144957611448612032565b5b90600052602060002090600b020190508373ffffffffffffffffffffffffffffffffffffffff168260010160009054906101000a900473ffffffffffffffffffffffffffffffffffffffff1673ffffffffffffffffffffffffffffffffffffffff16146114eb576040517f08c379a00000000000000000000000000000000000000000000000000000000081526004016114e2906120be565b60405180910390fd5b600060058111156114ff576114fe611afb565b5b8260060160009054906101000a900460ff16600581111561152357611522611afb565b5b14611563576040517f08c379a000000000000000000000000000000000000000000000000000000000815260040161155a906122d6565b60405180910390fd5b60048260060160006101000a81548160ff0219169083600581111561158b5761158a611afb565b5b021790555060048160060160006101000a81548160ff021916908360058111156115b8576115b7611afb565b5b02179055508373ffffffffffffffffffffffffffffffffffffffff168573ffffffffffffffffffffffffffffffffffffffff167fe809f8b1c92785cd28fab6f2761ca16f910fc009c5a3e9b2dfe87ecae1273a75846002015460405161161e9190611f5d565b60405180910390a35050505050565b60008060008673ffffffffffffffffffffffffffffffffffffffff1673ffffffffffffffffffffffffffffffffffffffff168152602001908152602001600020838154811061167f5761167e612032565b5b90600052602060002090600b020190506000600284815481106116a5576116a4612032565b5b90600052602060002090600b020190508473ffffffffffffffffffffffffffffffffffffffff168260010160009054906101000a900473ffffffffffffffffffffffffffffffffffffffff1673ffffffffffffffffffffffffffffffffffffffff1614611747576040517f08c379a000000000000000000000000000000000000000000000000000000000815260040161173e906120be565b60405180910390fd5b6004600581111561175b5761175a611afb565b5b8260060160009054906101000a900460ff16600581111561177f5761177e611afb565b5b146117bf576040517f08c379a00000000000000000000000000000000000000000000000000000000081526004016117b690612342565b60405180910390fd5b8160060160019054906101000a900460ff1615611811576040517f08c379a0000000000000000000000000000000000000000000000000000000008152600401611808906123ae565b60405180910390fd5b60058260060160006101000a81548160ff0219169083600581111561183957611838611afb565b5b021790555060058160060160006101000a81548160ff0219169083600581111561186657611865611afb565b5b02179055504281600a01819055504282600a01819055506000826005015490508260000160009054906101000a900473ffffffffffffffffffffffffffffffffffffffff1673ffffffffffffffffffffffffffffffffffffffff166108fc829081150290604051600060405180830381858888f193505050501580156118f0573d6000803e3d6000fd5b5060018360060160016101000a81548160ff02191690831515021790555060018260060160016101000a81548160ff0219169083151502179055508573ffffffffffffffffffffffffffffffffffffffff168773ffffffffffffffffffffffffffffffffffffffff167fd1515ee36975d6573d6b77d59761d53ec3158e6cf0749bd1dc6f4b11c7e7476e856003015460405161198c9190611f5d565b60405180910390a38573ffffffffffffffffffffffffffffffffffffffff168773ffffffffffffffffffffffffffffffffffffffff167f77cd38c84f4c10aa75c49ed167bfea624033e3dd81a0b236bd848b8431efe44683876040516119f39291906123ce565b60405180910390a350505050505050565b600080fd5b600073ffffffffffffffffffffffffffffffffffffffff82169050919050565b6000611a3482611a09565b9050919050565b611a4481611a29565b8114611a4f57600080fd5b50565b600081359050611a6181611a3b565b92915050565b6000819050919050565b611a7a81611a67565b8114611a8557600080fd5b50565b600081359050611a9781611a71565b92915050565b60008060408385031215611ab457611ab3611a04565b5b6000611ac285828601611a52565b9250506020611ad385828601611a88565b9150509250929050565b611ae681611a29565b82525050565b611af581611a67565b82525050565b7f4e487b7100000000000000000000000000000000000000000000000000000000600052602160045260246000fd5b60068110611b3b57611b3a611afb565b5b50565b6000819050611b4c82611b2a565b919050565b6000611b5c82611b3e565b9050919050565b611b6c81611b51565b82525050565b60008115159050919050565b611b8781611b72565b82525050565b600061018082019050611ba3600083018f611add565b611bb0602083018e611add565b611bbd604083018d611aec565b611bca606083018c611aec565b611bd7608083018b611aec565b611be460a083018a611aec565b611bf160c0830189611b63565b611bfe60e0830188611b7e565b611c0c610100830187611aec565b611c1a610120830186611aec565b611c28610140830185611aec565b611c36610160830184611aec565b9d9c50505050505050505050505050565b60008060008060808587031215611c6157611c60611a04565b5b6000611c6f87828801611a52565b9450506020611c8087828801611a52565b9350506040611c9187828801611a88565b9250506060611ca287828801611a88565b91505092959194509250565b600081519050919050565b600082825260208201905092915050565b6000819050602082019050919050565b611ce381611a29565b82525050565b611cf281611a67565b82525050565b611d0181611b51565b82525050565b611d1081611b72565b82525050565b61018082016000820151611d2d6000850182611cda565b506020820151611d406020850182611cda565b506040820151611d536040850182611ce9565b506060820151611d666060850182611ce9565b506080820151611d796080850182611ce9565b5060a0820151611d8c60a0850182611ce9565b5060c0820151611d9f60c0850182611cf8565b5060e0820151611db260e0850182611d07565b50610100820151611dc7610100850182611ce9565b50610120820151611ddc610120850182611ce9565b50610140820151611df1610140850182611ce9565b50610160820151611e06610160850182611ce9565b50505050565b6000611e188383611d16565b6101808301905092915050565b6000602082019050919050565b6000611e3d82611cae565b611e478185611cb9565b9350611e5283611cca565b8060005b83811015611e83578151611e6a8882611e0c565b9750611e7583611e25565b925050600181019050611e56565b5085935050505092915050565b60006020820190508181036000830152611eaa8184611e32565b905092915050565b600061010082019050611ec8600083018b611add565b611ed5602083018a611add565b611ee26040830189611aec565b611eef6060830188611aec565b611efc6080830187611aec565b611f0960a0830186611aec565b611f1660c0830185611b63565b611f2360e0830184611b7e565b9998505050505050505050565b600060208284031215611f4657611f45611a04565b5b6000611f5484828501611a52565b91505092915050565b6000602082019050611f726000830184611aec565b92915050565b60008060008060808587031215611f9257611f91611a04565b5b6000611fa087828801611a52565b9450506020611fb187828801611a88565b9350506040611fc287828801611a88565b9250506060611fd387828801611a88565b91505092959194509250565b600080600060608486031215611ff857611ff7611a04565b5b600061200686828701611a52565b935050602061201786828701611a52565b925050604061202886828701611a88565b9150509250925092565b7f4e487b7100000000000000000000000000000000000000000000000000000000600052603260045260246000fd5b600082825260208201905092915050565b7f5265636570746f7220696e6578697374656e74652e0000000000000000000000600082015250565b60006120a8601583612061565b91506120b382612072565b602082019050919050565b600060208201905081810360008301526120d78161209b565b9050919050565b7f52414d2050524f4752414d4144412e0000000000000000000000000000000000600082015250565b6000612114600f83612061565b915061211f826120de565b602082019050919050565b6000602082019050818103600083015261214381612107565b9050919050565b7f456c206d6f6e746f2064656c207061676f206465626520636f696e636964697260008201527f20636f6e20656c2070726563696f2e0000000000000000000000000000000000602082015250565b60006121a6602f83612061565b91506121b18261214a565b604082019050919050565b600060208201905081810360008301526121d581612199565b9050919050565b7f4e487b7100000000000000000000000000000000000000000000000000000000600052601160045260246000fd5b600061221682611a67565b91507fffffffffffffffffffffffffffffffffffffffffffffffffffffffffffffffff8203612248576122476121dc565b5b600182019050919050565b60006060820190506122686000830186611aec565b6122756020830185611aec565b6122826040830184611aec565b949350505050565b7f52414d20656e76696164612e0000000000000000000000000000000000000000600082015250565b60006122c0600c83612061565b91506122cb8261228a565b602082019050919050565b600060208201905081810360008301526122ef816122b3565b9050919050565b7f72616d206e6f7420696e207472616e7369742e00000000000000000000000000600082015250565b600061232c601383612061565b9150612337826122f6565b602082019050919050565b6000602082019050818103600083015261235b8161231f565b9050919050565b7f52616d2070726f6365736f20636f6d706c657461646f2e000000000000000000600082015250565b6000612398601783612061565b91506123a382612362565b602082019050919050565b600060208201905081810360008301526123c78161238b565b9050919050565b60006040820190506123e36000830185611aec565b6123f06020830184611aec565b939250505056fea2646970667358221220122504d9f0a4d78f1be36189f60755d510297db6417965506afac7958b2a975d64736f6c63430008120033",
  "linkReferences": {},
  "deployedLinkReferences": {}
}